{"project/contracts/PythConsumer.sol":{"PythConsumer":{"abi":[{"inputs":[{"internalType":"address","name":"pythContract","type":"address"}],"stateMutability":"nonpayable","type":"constructor"},{"anonymous":false,"inputs":[{"indexed":true,"internalType":"bytes32","name":"id","type":"bytes32"},{"indexed":false,"internalType":"int64","name":"price","type":"int64"},{"indexed":false,"internalType":"int32","name":"expo","type":"int32"},{"indexed":false,"internalType":"uint64","name":"publishTime","type":"uint64"}],"name":"PriceUpdated","type":"event"},{"inputs":[{"internalType":"bytes32","name":"","type":"bytes32"}],"name":"lastPrice","outputs":[{"internalType":"int64","name":"price","type":"int64"},{"internalType":"uint64","name":"conf","type":"uint64"},{"internalType":"int32","name":"expo","type":"int32"},{"internalType":"uint64","name":"publishTime","type":"uint64"}],"stateMutability":"view","type":"function"},{"inputs":[],"name":"pyth","outputs":[{"internalType":"contract IPyth","name":"","type":"address"}],"stateMutability":"view","type":"function"},{"inputs":[{"internalType":"bytes[]","name":"priceUpdate","type":"bytes[]"},{"internalType":"bytes32","name":"feedId","type":"bytes32"},{"internalType":"uint256","name":"stalenessSeconds","type":"uint256"}],"name":"updateAndStore","outputs":[],"stateMutability":"payable","type":"function"}],"evm":{"bytecode":{"linkReferences":{},"object":"60a060405234801561000f575f80fd5b5060405161079838038061079883398101604081905261002e9161003f565b6001600160a01b031660805261006c565b5f6020828403121561004f575f80fd5b81516001600160a01b0381168114610065575f80fd5b9392505050565b6080516107006100985f395f818160f2015281816101450152818161021b015261029f01526107005ff3fe608060405260043610610033575f3560e01c806312a5bd6b146100375780634b92ff721461004c578063f98d06f0146100e1575b5f80fd5b61004a610045366004610484565b61012c565b005b348015610057575f80fd5b506100a46100663660046104ff565b5f60208190529081526040902054600781900b9067ffffffffffffffff600160401b8204811691600160801b810460030b91600160a01b9091041684565b6040805160079590950b855267ffffffffffffffff938416602086015260039290920b918401919091521660608201526080015b60405180910390f35b3480156100ec575f80fd5b506101147f000000000000000000000000000000000000000000000000000000000000000081565b6040516001600160a01b0390911681526020016100d8565b60405163d47eed4560e01b81525f906001600160a01b037f0000000000000000000000000000000000000000000000000000000000000000169063d47eed459061017c908890889060040161053e565b602060405180830381865afa158015610197573d5f803e3d5ffd5b505050506040513d601f19601f820116820180604052508101906101bb91906105d6565b9050803410156102045760405162461bcd60e51b815260206004820152601060248201526f696e73756666696369656e742066656560801b604482015260640160405180910390fd5b604051631df3cbc560e31b81526001600160a01b037f0000000000000000000000000000000000000000000000000000000000000000169063ef9e5e28908390610254908990899060040161053e565b5f604051808303818588803b15801561026b575f80fd5b505af115801561027d573d5f803e3d5ffd5b505060405163052571af60e51b815260048101879052602481018690525f93507f00000000000000000000000000000000000000000000000000000000000000006001600160a01b0316925063a4ae35e09150604401608060405180830381865afa1580156102ee573d5f803e3d5ffd5b505050506040513d601f19601f82011682018060405250810190610312919061061a565b60408051608081018252825160070b815260208084015167ffffffffffffffff9081168284019081528486015160030b84860190815260608088015184169086019081525f8c81529485905295909320935184549151935195518316600160a01b0267ffffffffffffffff60a01b1963ffffffff909716600160801b02969096166bffffffffffffffffffffffff60801b19948416600160401b026fffffffffffffffffffffffffffffffff19909316919093161717919091161791909117905590503482101561041257336108fc6103eb84346106a5565b6040518115909202915f818181858888f19350505050158015610410573d5f803e3d5ffd5b505b837f03bfe982a9133b7fc4e16934d6c4547e03699fce572dd1107da2774f674c145c825f0151836040015184606001516040516104749392919060079390930b835260039190910b602083015267ffffffffffffffff16604082015260600190565b60405180910390a2505050505050565b5f805f8060608587031215610497575f80fd5b843567ffffffffffffffff808211156104ae575f80fd5b818701915087601f8301126104c1575f80fd5b8135818111156104cf575f80fd5b8860208260051b85010111156104e3575f80fd5b6020928301999098509187013596604001359550909350505050565b5f6020828403121561050f575f80fd5b5035919050565b81835281816020850137505f828201602090810191909152601f909101601f19169091010190565b60208082528181018390525f906040600585901b8401810190840186845b878110156105c957868403603f190183528135368a9003601e19018112610581575f80fd5b8901858101903567ffffffffffffffff81111561059c575f80fd5b8036038213156105aa575f80fd5b6105b5868284610516565b95505050918401919084019060010161055c565b5091979650505050505050565b5f602082840312156105e6575f80fd5b5051919050565b805167ffffffffffffffff81168114610604575f80fd5b919050565b8051600381900b8114610604575f80fd5b5f6080828403121561062a575f80fd5b6040516080810181811067ffffffffffffffff8211171561065957634e487b7160e01b5f52604160045260245ffd5b6040528251600781900b811461066d575f80fd5b815261067b602084016105ed565b602082015261068c60408401610609565b6040820152606083015160608201528091505092915050565b818103818111156106c457634e487b7160e01b5f52601160045260245ffd5b9291505056fea2646970667358221220084f5cae709d48c197c2fb7d2b44e520cf48c70d37cd29f679f636a22ed3931564736f6c63430008180033","opcodes":"PUSH1 0xA0 PUSH1 0x40 MSTORE CALLVALUE DUP1 ISZERO PUSH2 0xF JUMPI PUSH0 DUP1 REVERT JUMPDEST POP PUSH1 0x40 MLOAD PUSH2 0x798 CODESIZE SUB DUP1 PUSH2 0x798 DUP4 CODECOPY DUP2 ADD PUSH1 0x40 DUP2 SWAP1 MSTORE PUSH2 0x2E SWAP2 PUSH2 0x3F JUMP JUMPDEST PUSH1 0x1 PUSH1 0x1 PUSH1 0xA0 SHL SUB AND PUSH1 0x80 MSTORE PUSH2 0x6C JUMP JUMPDEST PUSH0 PUSH1 0x20 DUP3 DUP5 SUB SLT ISZERO PUSH2 0x4F JUMPI PUSH0 DUP1 REVERT JUMPDEST DUP2 MLOAD PUSH1 0x1 PUSH1 0x1 PUSH1 0xA0 SHL SUB DUP2 AND DUP2 EQ PUSH2 0x65 JUMPI PUSH0 DUP1 REVERT JUMPDEST SWAP4 SWAP3 POP POP POP JUMP JUMPDEST PUSH1 0x80 MLOAD PUSH2 0x700 PUSH2 0x98 PUSH0 CODECOPY PUSH0 DUP2 DUP2 PUSH1 0xF2 ADD MSTORE DUP2 DUP2 PUSH2 0x145 ADD MSTORE DUP2 DUP2 PUSH2 0x21B ADD MSTORE PUSH2 0x29F ADD MSTORE PUSH2 0x700 PUSH0 RETURN INVALID PUSH1 0x80 PUSH1 0x40 MSTORE PUSH1 0x4 CALLDATASIZE LT PUSH2 0x33 JUMPI PUSH0 CALLDATALOAD PUSH1 0xE0 SHR DUP1 PUSH4 0x12A5BD6B EQ PUSH2 0x37 JUMPI DUP1 PUSH4 0x4B92FF72 EQ PUSH2 0x4C JUMPI DUP1 PUSH4 0xF98D06F0 EQ PUSH2 0xE1 JUMPI JUMPDEST PUSH0 DUP1 REVERT JUMPDEST PUSH2 0x4A PUSH2 0x45 CALLDATASIZE PUSH1 0x4 PUSH2 0x484 JUMP JUMPDEST PUSH2 0x12C JUMP JUMPDEST STOP JUMPDEST CALLVALUE DUP1 ISZERO PUSH2 0x57 JUMPI PUSH0 DUP1 REVERT JUMPDEST POP PUSH2 0xA4 PUSH2 0x66 CALLDATASIZE PUSH1 0x4 PUSH2 0x4FF JUMP JUMPDEST PUSH0 PUSH1 0x20 DUP2 SWAP1 MSTORE SWAP1 DUP2 MSTORE PUSH1 0x40 SWAP1 KECCAK256 SLOAD PUSH1 0x7 DUP2 SWAP1 SIGNEXTEND SWAP1 PUSH8 0xFFFFFFFFFFFFFFFF PUSH1 0x1 PUSH1 0x40 SHL DUP3 DIV DUP2 AND SWAP2 PUSH1 0x1 PUSH1 0x80 SHL DUP2 DIV PUSH1 0x3 SIGNEXTEND SWAP2 PUSH1 0x1 PUSH1 0xA0 SHL SWAP1 SWAP2 DIV AND DUP5 JUMP JUMPDEST PUSH1 0x40 DUP1 MLOAD PUSH1 0x7 SWAP6 SWAP1 SWAP6 SIGNEXTEND DUP6 MSTORE PUSH8 0xFFFFFFFFFFFFFFFF SWAP4 DUP5 AND PUSH1 0x20 DUP7 ADD MSTORE PUSH1 0x3 SWAP3 SWAP1 SWAP3 SIGNEXTEND SWAP2 DUP5 ADD SWAP2 SWAP1 SWAP2 MSTORE AND PUSH1 0x60 DUP3 ADD MSTORE PUSH1 0x80 ADD JUMPDEST PUSH1 0x40 MLOAD DUP1 SWAP2 SUB SWAP1 RETURN JUMPDEST CALLVALUE DUP1 ISZERO PUSH2 0xEC JUMPI PUSH0 DUP1 REVERT JUMPDEST POP PUSH2 0x114 PUSH32 0x0 DUP2 JUMP JUMPDEST PUSH1 0x40 MLOAD PUSH1 0x1 PUSH1 0x1 PUSH1 0xA0 SHL SUB SWAP1 SWAP2 AND DUP2 MSTORE PUSH1 0x20 ADD PUSH2 0xD8 JUMP JUMPDEST PUSH1 0x40 MLOAD PUSH4 0xD47EED45 PUSH1 0xE0 SHL DUP2 MSTORE PUSH0 SWAP1 PUSH1 0x1 PUSH1 0x1 PUSH1 0xA0 SHL SUB PUSH32 0x0 AND SWAP1 PUSH4 0xD47EED45 SWAP1 PUSH2 0x17C SWAP1 DUP9 SWAP1 DUP9 SWAP1 PUSH1 0x4 ADD PUSH2 0x53E JUMP JUMPDEST PUSH1 0x20 PUSH1 0x40 MLOAD DUP1 DUP4 SUB DUP2 DUP7 GAS STATICCALL ISZERO DUP1 ISZERO PUSH2 0x197 JUMPI RETURNDATASIZE PUSH0 DUP1 RETURNDATACOPY RETURNDATASIZE PUSH0 REVERT JUMPDEST POP POP POP POP PUSH1 0x40 MLOAD RETURNDATASIZE PUSH1 0x1F NOT PUSH1 0x1F DUP3 ADD AND DUP3 ADD DUP1 PUSH1 0x40 MSTORE POP DUP2 ADD SWAP1 PUSH2 0x1BB SWAP2 SWAP1 PUSH2 0x5D6 JUMP JUMPDEST SWAP1 POP DUP1 CALLVALUE LT ISZERO PUSH2 0x204 JUMPI PUSH1 0x40 MLOAD PUSH3 0x461BCD PUSH1 0xE5 SHL DUP2 MSTORE PUSH1 0x20 PUSH1 0x4 DUP3 ADD MSTORE PUSH1 0x10 PUSH1 0x24 DUP3 ADD MSTORE PUSH16 0x696E73756666696369656E7420666565 PUSH1 0x80 SHL PUSH1 0x44 DUP3 ADD MSTORE PUSH1 0x64 ADD PUSH1 0x40 MLOAD DUP1 SWAP2 SUB SWAP1 REVERT JUMPDEST PUSH1 0x40 MLOAD PUSH4 0x1DF3CBC5 PUSH1 0xE3 SHL DUP2 MSTORE PUSH1 0x1 PUSH1 0x1 PUSH1 0xA0 SHL SUB PUSH32 0x0 AND SWAP1 PUSH4 0xEF9E5E28 SWAP1 DUP4 SWAP1 PUSH2 0x254 SWAP1 DUP10 SWAP1 DUP10 SWAP1 PUSH1 0x4 ADD PUSH2 0x53E JUMP JUMPDEST PUSH0 PUSH1 0x40 MLOAD DUP1 DUP4 SUB DUP2 DUP6 DUP9 DUP1 EXTCODESIZE ISZERO DUP1 ISZERO PUSH2 0x26B JUMPI PUSH0 DUP1 REVERT JUMPDEST POP GAS CALL ISZERO DUP1 ISZERO PUSH2 0x27D JUMPI RETURNDATASIZE PUSH0 DUP1 RETURNDATACOPY RETURNDATASIZE PUSH0 REVERT JUMPDEST POP POP PUSH1 0x40 MLOAD PUSH4 0x52571AF PUSH1 0xE5 SHL DUP2 MSTORE PUSH1 0x4 DUP2 ADD DUP8 SWAP1 MSTORE PUSH1 0x24 DUP2 ADD DUP7 SWAP1 MSTORE PUSH0 SWAP4 POP PUSH32 0x0 PUSH1 0x1 PUSH1 0x1 PUSH1 0xA0 SHL SUB AND SWAP3 POP PUSH4 0xA4AE35E0 SWAP2 POP PUSH1 0x44 ADD PUSH1 0x80 PUSH1 0x40 MLOAD DUP1 DUP4 SUB DUP2 DUP7 GAS STATICCALL ISZERO DUP1 ISZERO PUSH2 0x2EE JUMPI RETURNDATASIZE PUSH0 DUP1 RETURNDATACOPY RETURNDATASIZE PUSH0 REVERT JUMPDEST POP POP POP POP PUSH1 0x40 MLOAD RETURNDATASIZE PUSH1 0x1F NOT PUSH1 0x1F DUP3 ADD AND DUP3 ADD DUP1 PUSH1 0x40 MSTORE POP DUP2 ADD SWAP1 PUSH2 0x312 SWAP2 SWAP1 PUSH2 0x61A JUMP JUMPDEST PUSH1 0x40 DUP1 MLOAD PUSH1 0x80 DUP2 ADD DUP3 MSTORE DUP3 MLOAD PUSH1 0x7 SIGNEXTEND DUP2 MSTORE PUSH1 0x20 DUP1 DUP5 ADD MLOAD PUSH8 0xFFFFFFFFFFFFFFFF SWAP1 DUP2 AND DUP3 DUP5 ADD SWAP1 DUP2 MSTORE DUP5 DUP7 ADD MLOAD PUSH1 0x3 SIGNEXTEND DUP5 DUP7 ADD SWAP1 DUP2 MSTORE PUSH1 0x60 DUP1 DUP9 ADD MLOAD DUP5 AND SWAP1 DUP7 ADD SWAP1 DUP2 MSTORE PUSH0 DUP13 DUP2 MSTORE SWAP5 DUP6 SWAP1 MSTORE SWAP6 SWAP1 SWAP4 KECCAK256 SWAP4 MLOAD DUP5 SLOAD SWAP2 MLOAD SWAP4 MLOAD SWAP6 MLOAD DUP4 AND PUSH1 0x1 PUSH1 0xA0 SHL MUL PUSH8 0xFFFFFFFFFFFFFFFF PUSH1 0xA0 SHL NOT PUSH4 0xFFFFFFFF SWAP1 SWAP8 AND PUSH1 0x1 PUSH1 0x80 SHL MUL SWAP7 SWAP1 SWAP7 AND PUSH12 0xFFFFFFFFFFFFFFFFFFFFFFFF PUSH1 0x80 SHL NOT SWAP5 DUP5 AND PUSH1 0x1 PUSH1 0x40 SHL MUL PUSH16 0xFFFFFFFFFFFFFFFFFFFFFFFFFFFFFFFF NOT SWAP1 SWAP4 AND SWAP2 SWAP1 SWAP4 AND OR OR SWAP2 SWAP1 SWAP2 AND OR SWAP2 SWAP1 SWAP2 OR SWAP1 SSTORE SWAP1 POP CALLVALUE DUP3 LT ISZERO PUSH2 0x412 JUMPI CALLER PUSH2 0x8FC PUSH2 0x3EB DUP5 CALLVALUE PUSH2 0x6A5 JUMP JUMPDEST PUSH1 0x40 MLOAD DUP2 ISZERO SWAP1 SWAP3 MUL SWAP2 PUSH0 DUP2 DUP2 DUP2 DUP6 DUP9 DUP9 CALL SWAP4 POP POP POP POP ISZERO DUP1 ISZERO PUSH2 0x410 JUMPI RETURNDATASIZE PUSH0 DUP1 RETURNDATACOPY RETURNDATASIZE PUSH0 REVERT JUMPDEST POP JUMPDEST DUP4 PUSH32 0x3BFE982A9133B7FC4E16934D6C4547E03699FCE572DD1107DA2774F674C145C DUP3 PUSH0 ADD MLOAD DUP4 PUSH1 0x40 ADD MLOAD DUP5 PUSH1 0x60 ADD MLOAD PUSH1 0x40 MLOAD PUSH2 0x474 SWAP4 SWAP3 SWAP2 SWAP1 PUSH1 0x7 SWAP4 SWAP1 SWAP4 SIGNEXTEND DUP4 MSTORE PUSH1 0x3 SWAP2 SWAP1 SWAP2 SIGNEXTEND PUSH1 0x20 DUP4 ADD MSTORE PUSH8 0xFFFFFFFFFFFFFFFF AND PUSH1 0x40 DUP3 ADD MSTORE PUSH1 0x60 ADD SWAP1 JUMP JUMPDEST PUSH1 0x40 MLOAD DUP1 SWAP2 SUB SWAP1 LOG2 POP POP POP POP POP POP JUMP JUMPDEST PUSH0 DUP1 PUSH0 DUP1 PUSH1 0x60 DUP6 DUP8 SUB SLT ISZERO PUSH2 0x497 JUMPI PUSH0 DUP1 REVERT JUMPDEST DUP5 CALLDATALOAD PUSH8 0xFFFFFFFFFFFFFFFF DUP1 DUP3 GT ISZERO PUSH2 0x4AE JUMPI PUSH0 DUP1 REVERT JUMPDEST DUP2 DUP8 ADD SWAP2 POP DUP8 PUSH1 0x1F DUP4 ADD SLT PUSH2 0x4C1 JUMPI PUSH0 DUP1 REVERT JUMPDEST DUP2 CALLDATALOAD DUP2 DUP2 GT ISZERO PUSH2 0x4CF JUMPI PUSH0 DUP1 REVERT JUMPDEST DUP9 PUSH1 0x20 DUP3 PUSH1 0x5 SHL DUP6 ADD ADD GT ISZERO PUSH2 0x4E3 JUMPI PUSH0 DUP1 REVERT JUMPDEST PUSH1 0x20 SWAP3 DUP4 ADD SWAP10 SWAP1 SWAP9 POP SWAP2 DUP8 ADD CALLDATALOAD SWAP7 PUSH1 0x40 ADD CALLDATALOAD SWAP6 POP SWAP1 SWAP4 POP POP POP POP JUMP JUMPDEST PUSH0 PUSH1 0x20 DUP3 DUP5 SUB SLT ISZERO PUSH2 0x50F JUMPI PUSH0 DUP1 REVERT JUMPDEST POP CALLDATALOAD SWAP2 SWAP1 POP JUMP JUMPDEST DUP2 DUP4 MSTORE DUP2 DUP2 PUSH1 0x20 DUP6 ADD CALLDATACOPY POP PUSH0 DUP3 DUP3 ADD PUSH1 0x20 SWAP1 DUP2 ADD SWAP2 SWAP1 SWAP2 MSTORE PUSH1 0x1F SWAP1 SWAP2 ADD PUSH1 0x1F NOT AND SWAP1 SWAP2 ADD ADD SWAP1 JUMP JUMPDEST PUSH1 0x20 DUP1 DUP3 MSTORE DUP2 DUP2 ADD DUP4 SWAP1 MSTORE PUSH0 SWAP1 PUSH1 0x40 PUSH1 0x5 DUP6 SWAP1 SHL DUP5 ADD DUP2 ADD SWAP1 DUP5 ADD DUP7 DUP5 JUMPDEST DUP8 DUP2 LT ISZERO PUSH2 0x5C9 JUMPI DUP7 DUP5 SUB PUSH1 0x3F NOT ADD DUP4 MSTORE DUP2 CALLDATALOAD CALLDATASIZE DUP11 SWAP1 SUB PUSH1 0x1E NOT ADD DUP2 SLT PUSH2 0x581 JUMPI PUSH0 DUP1 REVERT JUMPDEST DUP10 ADD DUP6 DUP2 ADD SWAP1 CALLDATALOAD PUSH8 0xFFFFFFFFFFFFFFFF DUP2 GT ISZERO PUSH2 0x59C JUMPI PUSH0 DUP1 REVERT JUMPDEST DUP1 CALLDATASIZE SUB DUP3 SGT ISZERO PUSH2 0x5AA JUMPI PUSH0 DUP1 REVERT JUMPDEST PUSH2 0x5B5 DUP7 DUP3 DUP5 PUSH2 0x516 JUMP JUMPDEST SWAP6 POP POP POP SWAP2 DUP5 ADD SWAP2 SWAP1 DUP5 ADD SWAP1 PUSH1 0x1 ADD PUSH2 0x55C JUMP JUMPDEST POP SWAP2 SWAP8 SWAP7 POP POP POP POP POP POP POP JUMP JUMPDEST PUSH0 PUSH1 0x20 DUP3 DUP5 SUB SLT ISZERO PUSH2 0x5E6 JUMPI PUSH0 DUP1 REVERT JUMPDEST POP MLOAD SWAP2 SWAP1 POP JUMP JUMPDEST DUP1 MLOAD PUSH8 0xFFFFFFFFFFFFFFFF DUP2 AND DUP2 EQ PUSH2 0x604 JUMPI PUSH0 DUP1 REVERT JUMPDEST SWAP2 SWAP1 POP JUMP JUMPDEST DUP1 MLOAD PUSH1 0x3 DUP2 SWAP1 SIGNEXTEND DUP2 EQ PUSH2 0x604 JUMPI PUSH0 DUP1 REVERT JUMPDEST PUSH0 PUSH1 0x80 DUP3 DUP5 SUB SLT ISZERO PUSH2 0x62A JUMPI PUSH0 DUP1 REVERT JUMPDEST PUSH1 0x40 MLOAD PUSH1 0x80 DUP2 ADD DUP2 DUP2 LT PUSH8 0xFFFFFFFFFFFFFFFF DUP3 GT OR ISZERO PUSH2 0x659 JUMPI PUSH4 0x4E487B71 PUSH1 0xE0 SHL PUSH0 MSTORE PUSH1 0x41 PUSH1 0x4 MSTORE PUSH1 0x24 PUSH0 REVERT JUMPDEST PUSH1 0x40 MSTORE DUP3 MLOAD PUSH1 0x7 DUP2 SWAP1 SIGNEXTEND DUP2 EQ PUSH2 0x66D JUMPI PUSH0 DUP1 REVERT JUMPDEST DUP2 MSTORE PUSH2 0x67B PUSH1 0x20 DUP5 ADD PUSH2 0x5ED JUMP JUMPDEST PUSH1 0x20 DUP3 ADD MSTORE PUSH2 0x68C PUSH1 0x40 DUP5 ADD PUSH2 0x609 JUMP JUMPDEST PUSH1 0x40 DUP3 ADD MSTORE PUSH1 0x60 DUP4 ADD MLOAD PUSH1 0x60 DUP3 ADD MSTORE DUP1 SWAP2 POP POP SWAP3 SWAP2 POP POP JUMP JUMPDEST DUP2 DUP2 SUB DUP2 DUP2 GT ISZERO PUSH2 0x6C4 JUMPI PUSH4 0x4E487B71 PUSH1 0xE0 SHL PUSH0 MSTORE PUSH1 0x11 PUSH1 0x4 MSTORE PUSH1 0x24 PUSH0 REVERT JUMPDEST SWAP3 SWAP2 POP POP JUMP INVALID LOG2 PUSH5 0x6970667358 0x22 SLT KECCAK256 ADDMOD 0x4F TLOAD 0xAE PUSH17 0x9D48C197C2FB7D2B44E520CF48C70D37CD 0x29 0xF6 PUSH26 0xF636A22ED3931564736F6C634300081800330000000000000000 "},"methodIdentifiers":{"lastPrice(bytes32)":"4b92ff72","pyth()":"f98d06f0","updateAndStore(bytes[],bytes32,uint256)":"12a5bd6b"}}}}}