{"project/contracts/PiggyJarTRBTC.sol":{"PiggyJarTRBTC":{"abi":[{"inputs":[{"internalType":"address","name":"_owner","type":"address"},{"internalType":"string","name":"_name","type":"string"},{"internalType":"uint8","name":"_period","type":"uint8"},{"internalType":"uint256","name":"_recurringAmount","type":"uint256"},{"internalType":"uint256","name":"_targetAmount","type":"uint256"}],"stateMutability":"nonpayable","type":"constructor"},{"inputs":[],"name":"ReentrancyGuardReentrantCall","type":"error"},{"anonymous":false,"inputs":[{"indexed":true,"internalType":"address","name":"to","type":"address"},{"indexed":false,"internalType":"uint256","name":"amount","type":"uint256"}],"name":"Broken","type":"event"},{"anonymous":false,"inputs":[{"indexed":true,"internalType":"address","name":"from","type":"address"},{"indexed":false,"internalType":"uint256","name":"amount","type":"uint256"}],"name":"Deposited","type":"event"},{"anonymous":false,"inputs":[{"indexed":false,"internalType":"uint256","name":"totalDeposited","type":"uint256"}],"name":"Filled","type":"event"},{"anonymous":false,"inputs":[{"indexed":false,"internalType":"uint8","name":"period","type":"uint8"},{"indexed":false,"internalType":"uint256","name":"recurringAmount","type":"uint256"}],"name":"ScheduleSet","type":"event"},{"anonymous":false,"inputs":[{"indexed":false,"internalType":"uint256","name":"targetAmount","type":"uint256"}],"name":"TargetSet","type":"event"},{"anonymous":false,"inputs":[{"indexed":true,"internalType":"address","name":"to","type":"address"},{"indexed":false,"internalType":"uint256","name":"amount","type":"uint256"}],"name":"Withdrawn","type":"event"},{"inputs":[],"name":"balance","outputs":[{"internalType":"uint256","name":"","type":"uint256"}],"stateMutability":"view","type":"function"},{"inputs":[],"name":"breakJar","outputs":[],"stateMutability":"nonpayable","type":"function"},{"inputs":[],"name":"deposit","outputs":[],"stateMutability":"payable","type":"function"},{"inputs":[],"name":"filled","outputs":[{"internalType":"bool","name":"","type":"bool"}],"stateMutability":"view","type":"function"},{"inputs":[],"name":"name","outputs":[{"internalType":"string","name":"","type":"string"}],"stateMutability":"view","type":"function"},{"inputs":[],"name":"owner","outputs":[{"internalType":"address","name":"","type":"address"}],"stateMutability":"view","type":"function"},{"inputs":[],"name":"period","outputs":[{"internalType":"uint8","name":"","type":"uint8"}],"stateMutability":"view","type":"function"},{"inputs":[],"name":"recurringAmount","outputs":[{"internalType":"uint256","name":"","type":"uint256"}],"stateMutability":"view","type":"function"},{"inputs":[{"internalType":"uint8","name":"_period","type":"uint8"},{"internalType":"uint256","name":"_recurringAmount","type":"uint256"}],"name":"setSchedule","outputs":[],"stateMutability":"nonpayable","type":"function"},{"inputs":[{"internalType":"uint256","name":"amount","type":"uint256"}],"name":"setTargetAmount","outputs":[],"stateMutability":"nonpayable","type":"function"},{"inputs":[],"name":"targetAmount","outputs":[{"internalType":"uint256","name":"","type":"uint256"}],"stateMutability":"view","type":"function"},{"inputs":[],"name":"totalDeposited","outputs":[{"internalType":"uint256","name":"","type":"uint256"}],"stateMutability":"view","type":"function"},{"inputs":[{"internalType":"uint256","name":"amount","type":"uint256"}],"name":"withdraw","outputs":[],"stateMutability":"nonpayable","type":"function"}],"evm":{"bytecode":{"linkReferences":{},"object":"60a060405234801562000010575f80fd5b5060405162000f0f38038062000f0f833981016040819052620000339162000163565b60015f556001600160a01b0385166200007a5760405162461bcd60e51b815260206004820152600560248201526437bbb732b960d91b604482015260640160405180910390fd5b6001600160a01b0385166080526001620000958582620002fe565b506004805461ff00191661010060ff861690810291909117909155600583905560408051918252602082018490527f9c94756bf9cafe00ee1c1d63c79a62eb01a94fc10963ffeb4c118f33cee9dbc2910160405180910390a180156200012e5760028190556040518181527fef50269f9cfa8c72e8cc1a4865bc5b7288dac942b3d7a701ef3d66cff5e9b5e29060200160405180910390a15b5050505050620003ca565b634e487b7160e01b5f52604160045260245ffd5b805160ff811681146200015e575f80fd5b919050565b5f805f805f60a0868803121562000178575f80fd5b85516001600160a01b03811681146200018f575f80fd5b602087810151919650906001600160401b0380821115620001ae575f80fd5b818901915089601f830112620001c2575f80fd5b815181811115620001d757620001d762000139565b604051601f8201601f19908116603f0116810190838211818310171562000202576200020262000139565b816040528281528c868487010111156200021a575f80fd5b5f93505b828410156200023d57848401860151818501870152928501926200021e565b5f8684830101528099505050505050506200025b604087016200014d565b6060870151608090970151959894975095949392505050565b600181811c908216806200028957607f821691505b602082108103620002a857634e487b7160e01b5f52602260045260245ffd5b50919050565b601f821115620002f957805f5260205f20601f840160051c81016020851015620002d55750805b601f840160051c820191505b81811015620002f6575f8155600101620002e1565b50505b505050565b81516001600160401b038111156200031a576200031a62000139565b62000332816200032b845462000274565b84620002ae565b602080601f83116001811462000368575f8415620003505750858301515b5f19600386901b1c1916600185901b178555620003c2565b5f85815260208120601f198616915b82811015620003985788860151825594840194600190910190840162000377565b5085821015620003b657878501515f19600388901b60f8161c191681555b505060018460011b0185555b505050505050565b608051610aed620004225f395f818161017b015281816103020152818161035f015281816103a801528181610420015281816104f10152818161053a015281816105b2015281816106b2015261088c0152610aed5ff3fe6080604052600436106100bf575f3560e01c8063953b8fb81161007c578063d0e30db011610057578063d0e30db0146101ff578063eb28363d14610207578063ef78d4fd14610226578063ff50abdc14610256575f80fd5b8063953b8fb8146101b5578063b69ef8a8146101d8578063d0089573146101ea575f80fd5b806306fdde03146100c357806324a5b1de146100ed5780632e1a7d4d146101035780634d55ed9b146101225780635c0133d9146101415780638da5cb5b1461016a575b5f80fd5b3480156100ce575f80fd5b506100d761026b565b6040516100e4919061098a565b60405180910390f35b3480156100f8575f80fd5b506101016102f7565b005b34801561010e575f80fd5b5061010161011d3660046109d6565b610415565b34801561012d575f80fd5b5061010161013c3660046109d6565b6105a7565b34801561014c575f80fd5b5060045461015a9060ff1681565b60405190151581526020016100e4565b348015610175575f80fd5b5061019d7f000000000000000000000000000000000000000000000000000000000000000081565b6040516001600160a01b0390911681526020016100e4565b3480156101c0575f80fd5b506101ca60025481565b6040519081526020016100e4565b3480156101e3575f80fd5b50476101ca565b3480156101f5575f80fd5b506101ca60055481565b6101016106a7565b348015610212575f80fd5b506101016102213660046109ed565b610881565b348015610231575f80fd5b5060045461024490610100900460ff1681565b60405160ff90911681526020016100e4565b348015610261575f80fd5b506101ca60035481565b6001805461027890610a1c565b80601f01602080910402602001604051908101604052809291908181526020018280546102a490610a1c565b80156102ef5780601f106102c6576101008083540402835291602001916102ef565b820191905f5260205f20905b8154815290600101906020018083116102d257829003601f168201915b505050505081565b336001600160a01b037f000000000000000000000000000000000000000000000000000000000000000016146103485760405162461bcd60e51b815260040161033f90610a54565b60405180910390fd5b610350610962565b60405147906001600160a01b037f0000000000000000000000000000000000000000000000000000000000000000169082156108fc029083905f818181858888f193505050501580156103a5573d5f803e3d5ffd5b507f00000000000000000000000000000000000000000000000000000000000000006001600160a01b03167f565718526be993468dcc62923216591a4a28163ed98a6b31d782529692f5b0578260405161040191815260200190565b60405180910390a25061041360015f55565b565b336001600160a01b037f0000000000000000000000000000000000000000000000000000000000000000161461045d5760405162461bcd60e51b815260040161033f90610a54565b610465610962565b5f811161049d5760405162461bcd60e51b8152602060048201526006602482015265185b5bdd5b9d60d21b604482015260640161033f565b804710156104e45760405162461bcd60e51b8152602060048201526014602482015273696e73756666696369656e742062616c616e636560601b604482015260640161033f565b6040516001600160a01b037f0000000000000000000000000000000000000000000000000000000000000000169082156108fc029083905f818181858888f19350505050158015610537573d5f803e3d5ffd5b507f00000000000000000000000000000000000000000000000000000000000000006001600160a01b03167f7084f5476618d8e60b11ef0d7d3f06914655adb8793e28ff7f018d4c76d505d58260405161059391815260200190565b60405180910390a26105a460015f55565b50565b336001600160a01b037f000000000000000000000000000000000000000000000000000000000000000016146105ef5760405162461bcd60e51b815260040161033f90610a54565b600254156106345760405162461bcd60e51b81526020600482015260126024820152711d185c99d95d08185b1c9958591e481cd95d60721b604482015260640161033f565b5f811161066c5760405162461bcd60e51b81526020600482015260066024820152651d185c99d95d60d21b604482015260640161033f565b60028190556040518181527fef50269f9cfa8c72e8cc1a4865bc5b7288dac942b3d7a701ef3d66cff5e9b5e29060200160405180910390a150565b336001600160a01b037f000000000000000000000000000000000000000000000000000000000000000016146106ef5760405162461bcd60e51b815260040161033f90610a54565b6106f7610962565b5f341161072f5760405162461bcd60e51b8152602060048201526006602482015265185b5bdd5b9d60d21b604482015260640161033f565b600254156107c95760045460ff16156107735760405162461bcd60e51b8152602060048201526006602482015265199a5b1b195960d21b604482015260640161033f565b5f6003546002546107849190610a8b565b9050803411156107c75760405162461bcd60e51b815260206004820152600e60248201526d195e18d959591cc81d185c99d95d60921b604482015260640161033f565b505b3460035f8282546107da9190610aa4565b909155505060405134815233907f2da466a7b24304f47e87fa2e1e5a81b9831ce54fec19055ce277ca2f39ba42c49060200160405180910390a25f6002541180156108285750600254600354145b15610878576004805460ff191660011790556003546040517fd14df08fabc3175c71c9c6b212bd0fd290d0e78a5f809c5f28deb5ba6f029b919161086f9190815260200190565b60405180910390a15b61041360015f55565b336001600160a01b037f000000000000000000000000000000000000000000000000000000000000000016146108c95760405162461bcd60e51b815260040161033f90610a54565b60028260ff1611156109065760405162461bcd60e51b81526020600482015260066024820152651c195c9a5bd960d21b604482015260640161033f565b6004805461ff00191661010060ff851690810291909117909155600582905560408051918252602082018390527f9c94756bf9cafe00ee1c1d63c79a62eb01a94fc10963ffeb4c118f33cee9dbc2910160405180910390a15050565b60025f540361098457604051633ee5aeb560e01b815260040160405180910390fd5b60025f55565b5f602080835283518060208501525f5b818110156109b65785810183015185820160400152820161099a565b505f604082860101526040601f19601f8301168501019250505092915050565b5f602082840312156109e6575f80fd5b5035919050565b5f80604083850312156109fe575f80fd5b823560ff81168114610a0e575f80fd5b946020939093013593505050565b600181811c90821680610a3057607f821691505b602082108103610a4e57634e487b7160e01b5f52602260045260245ffd5b50919050565b6020808252600990820152683737ba1037bbb732b960b91b604082015260600190565b634e487b7160e01b5f52601160045260245ffd5b81810381811115610a9e57610a9e610a77565b92915050565b80820180821115610a9e57610a9e610a7756fea2646970667358221220df204c0b6ec0164b02ac444f1857c7b430b9c41c165be0aefb34bcbb73ae2fe864736f6c63430008180033","opcodes":"PUSH1 0xA0 PUSH1 0x40 MSTORE CALLVALUE DUP1 ISZERO PUSH3 0x10 JUMPI PUSH0 DUP1 REVERT JUMPDEST POP PUSH1 0x40 MLOAD PUSH3 0xF0F CODESIZE SUB DUP1 PUSH3 0xF0F DUP4 CODECOPY DUP2 ADD PUSH1 0x40 DUP2 SWAP1 MSTORE PUSH3 0x33 SWAP2 PUSH3 0x163 JUMP JUMPDEST PUSH1 0x1 PUSH0 SSTORE PUSH1 0x1 PUSH1 0x1 PUSH1 0xA0 SHL SUB DUP6 AND PUSH3 0x7A JUMPI PUSH1 0x40 MLOAD PUSH3 0x461BCD PUSH1 0xE5 SHL DUP2 MSTORE PUSH1 0x20 PUSH1 0x4 DUP3 ADD MSTORE PUSH1 0x5 PUSH1 0x24 DUP3 ADD MSTORE PUSH5 0x37BBB732B9 PUSH1 0xD9 SHL PUSH1 0x44 DUP3 ADD MSTORE PUSH1 0x64 ADD PUSH1 0x40 MLOAD DUP1 SWAP2 SUB SWAP1 REVERT JUMPDEST PUSH1 0x1 PUSH1 0x1 PUSH1 0xA0 SHL SUB DUP6 AND PUSH1 0x80 MSTORE PUSH1 0x1 PUSH3 0x95 DUP6 DUP3 PUSH3 0x2FE JUMP JUMPDEST POP PUSH1 0x4 DUP1 SLOAD PUSH2 0xFF00 NOT AND PUSH2 0x100 PUSH1 0xFF DUP7 AND SWAP1 DUP2 MUL SWAP2 SWAP1 SWAP2 OR SWAP1 SWAP2 SSTORE PUSH1 0x5 DUP4 SWAP1 SSTORE PUSH1 0x40 DUP1 MLOAD SWAP2 DUP3 MSTORE PUSH1 0x20 DUP3 ADD DUP5 SWAP1 MSTORE PUSH32 0x9C94756BF9CAFE00EE1C1D63C79A62EB01A94FC10963FFEB4C118F33CEE9DBC2 SWAP2 ADD PUSH1 0x40 MLOAD DUP1 SWAP2 SUB SWAP1 LOG1 DUP1 ISZERO PUSH3 0x12E JUMPI PUSH1 0x2 DUP2 SWAP1 SSTORE PUSH1 0x40 MLOAD DUP2 DUP2 MSTORE PUSH32 0xEF50269F9CFA8C72E8CC1A4865BC5B7288DAC942B3D7A701EF3D66CFF5E9B5E2 SWAP1 PUSH1 0x20 ADD PUSH1 0x40 MLOAD DUP1 SWAP2 SUB SWAP1 LOG1 JUMPDEST POP POP POP POP POP PUSH3 0x3CA JUMP JUMPDEST PUSH4 0x4E487B71 PUSH1 0xE0 SHL PUSH0 MSTORE PUSH1 0x41 PUSH1 0x4 MSTORE PUSH1 0x24 PUSH0 REVERT JUMPDEST DUP1 MLOAD PUSH1 0xFF DUP2 AND DUP2 EQ PUSH3 0x15E JUMPI PUSH0 DUP1 REVERT JUMPDEST SWAP2 SWAP1 POP JUMP JUMPDEST PUSH0 DUP1 PUSH0 DUP1 PUSH0 PUSH1 0xA0 DUP7 DUP9 SUB SLT ISZERO PUSH3 0x178 JUMPI PUSH0 DUP1 REVERT JUMPDEST DUP6 MLOAD PUSH1 0x1 PUSH1 0x1 PUSH1 0xA0 SHL SUB DUP2 AND DUP2 EQ PUSH3 0x18F JUMPI PUSH0 DUP1 REVERT JUMPDEST PUSH1 0x20 DUP8 DUP2 ADD MLOAD SWAP2 SWAP7 POP SWAP1 PUSH1 0x1 PUSH1 0x1 PUSH1 0x40 SHL SUB DUP1 DUP3 GT ISZERO PUSH3 0x1AE JUMPI PUSH0 DUP1 REVERT JUMPDEST DUP2 DUP10 ADD SWAP2 POP DUP10 PUSH1 0x1F DUP4 ADD SLT PUSH3 0x1C2 JUMPI PUSH0 DUP1 REVERT JUMPDEST DUP2 MLOAD DUP2 DUP2 GT ISZERO PUSH3 0x1D7 JUMPI PUSH3 0x1D7 PUSH3 0x139 JUMP JUMPDEST PUSH1 0x40 MLOAD PUSH1 0x1F DUP3 ADD PUSH1 0x1F NOT SWAP1 DUP2 AND PUSH1 0x3F ADD AND DUP2 ADD SWAP1 DUP4 DUP3 GT DUP2 DUP4 LT OR ISZERO PUSH3 0x202 JUMPI PUSH3 0x202 PUSH3 0x139 JUMP JUMPDEST DUP2 PUSH1 0x40 MSTORE DUP3 DUP2 MSTORE DUP13 DUP7 DUP5 DUP8 ADD ADD GT ISZERO PUSH3 0x21A JUMPI PUSH0 DUP1 REVERT JUMPDEST PUSH0 SWAP4 POP JUMPDEST DUP3 DUP5 LT ISZERO PUSH3 0x23D JUMPI DUP5 DUP5 ADD DUP7 ADD MLOAD DUP2 DUP6 ADD DUP8 ADD MSTORE SWAP3 DUP6 ADD SWAP3 PUSH3 0x21E JUMP JUMPDEST PUSH0 DUP7 DUP5 DUP4 ADD ADD MSTORE DUP1 SWAP10 POP POP POP POP POP POP POP PUSH3 0x25B PUSH1 0x40 DUP8 ADD PUSH3 0x14D JUMP JUMPDEST PUSH1 0x60 DUP8 ADD MLOAD PUSH1 0x80 SWAP1 SWAP8 ADD MLOAD SWAP6 SWAP9 SWAP5 SWAP8 POP SWAP6 SWAP5 SWAP4 SWAP3 POP POP POP JUMP JUMPDEST PUSH1 0x1 DUP2 DUP2 SHR SWAP1 DUP3 AND DUP1 PUSH3 0x289 JUMPI PUSH1 0x7F DUP3 AND SWAP2 POP JUMPDEST PUSH1 0x20 DUP3 LT DUP2 SUB PUSH3 0x2A8 JUMPI PUSH4 0x4E487B71 PUSH1 0xE0 SHL PUSH0 MSTORE PUSH1 0x22 PUSH1 0x4 MSTORE PUSH1 0x24 PUSH0 REVERT JUMPDEST POP SWAP2 SWAP1 POP JUMP JUMPDEST PUSH1 0x1F DUP3 GT ISZERO PUSH3 0x2F9 JUMPI DUP1 PUSH0 MSTORE PUSH1 0x20 PUSH0 KECCAK256 PUSH1 0x1F DUP5 ADD PUSH1 0x5 SHR DUP2 ADD PUSH1 0x20 DUP6 LT ISZERO PUSH3 0x2D5 JUMPI POP DUP1 JUMPDEST PUSH1 0x1F DUP5 ADD PUSH1 0x5 SHR DUP3 ADD SWAP2 POP JUMPDEST DUP2 DUP2 LT ISZERO PUSH3 0x2F6 JUMPI PUSH0 DUP2 SSTORE PUSH1 0x1 ADD PUSH3 0x2E1 JUMP JUMPDEST POP POP JUMPDEST POP POP POP JUMP JUMPDEST DUP2 MLOAD PUSH1 0x1 PUSH1 0x1 PUSH1 0x40 SHL SUB DUP2 GT ISZERO PUSH3 0x31A JUMPI PUSH3 0x31A PUSH3 0x139 JUMP JUMPDEST PUSH3 0x332 DUP2 PUSH3 0x32B DUP5 SLOAD PUSH3 0x274 JUMP JUMPDEST DUP5 PUSH3 0x2AE JUMP JUMPDEST PUSH1 0x20 DUP1 PUSH1 0x1F DUP4 GT PUSH1 0x1 DUP2 EQ PUSH3 0x368 JUMPI PUSH0 DUP5 ISZERO PUSH3 0x350 JUMPI POP DUP6 DUP4 ADD MLOAD JUMPDEST PUSH0 NOT PUSH1 0x3 DUP7 SWAP1 SHL SHR NOT AND PUSH1 0x1 DUP6 SWAP1 SHL OR DUP6 SSTORE PUSH3 0x3C2 JUMP JUMPDEST PUSH0 DUP6 DUP2 MSTORE PUSH1 0x20 DUP2 KECCAK256 PUSH1 0x1F NOT DUP7 AND SWAP2 JUMPDEST DUP3 DUP2 LT ISZERO PUSH3 0x398 JUMPI DUP9 DUP7 ADD MLOAD DUP3 SSTORE SWAP5 DUP5 ADD SWAP5 PUSH1 0x1 SWAP1 SWAP2 ADD SWAP1 DUP5 ADD PUSH3 0x377 JUMP JUMPDEST POP DUP6 DUP3 LT ISZERO PUSH3 0x3B6 JUMPI DUP8 DUP6 ADD MLOAD PUSH0 NOT PUSH1 0x3 DUP9 SWAP1 SHL PUSH1 0xF8 AND SHR NOT AND DUP2 SSTORE JUMPDEST POP POP PUSH1 0x1 DUP5 PUSH1 0x1 SHL ADD DUP6 SSTORE JUMPDEST POP POP POP POP POP POP JUMP JUMPDEST PUSH1 0x80 MLOAD PUSH2 0xAED PUSH3 0x422 PUSH0 CODECOPY PUSH0 DUP2 DUP2 PUSH2 0x17B ADD MSTORE DUP2 DUP2 PUSH2 0x302 ADD MSTORE DUP2 DUP2 PUSH2 0x35F ADD MSTORE DUP2 DUP2 PUSH2 0x3A8 ADD MSTORE DUP2 DUP2 PUSH2 0x420 ADD MSTORE DUP2 DUP2 PUSH2 0x4F1 ADD MSTORE DUP2 DUP2 PUSH2 0x53A ADD MSTORE DUP2 DUP2 PUSH2 0x5B2 ADD MSTORE DUP2 DUP2 PUSH2 0x6B2 ADD MSTORE PUSH2 0x88C ADD MSTORE PUSH2 0xAED PUSH0 RETURN INVALID PUSH1 0x80 PUSH1 0x40 MSTORE PUSH1 0x4 CALLDATASIZE LT PUSH2 0xBF JUMPI PUSH0 CALLDATALOAD PUSH1 0xE0 SHR DUP1 PUSH4 0x953B8FB8 GT PUSH2 0x7C JUMPI DUP1 PUSH4 0xD0E30DB0 GT PUSH2 0x57 JUMPI DUP1 PUSH4 0xD0E30DB0 EQ PUSH2 0x1FF JUMPI DUP1 PUSH4 0xEB28363D EQ PUSH2 0x207 JUMPI DUP1 PUSH4 0xEF78D4FD EQ PUSH2 0x226 JUMPI DUP1 PUSH4 0xFF50ABDC EQ PUSH2 0x256 JUMPI PUSH0 DUP1 REVERT JUMPDEST DUP1 PUSH4 0x953B8FB8 EQ PUSH2 0x1B5 JUMPI DUP1 PUSH4 0xB69EF8A8 EQ PUSH2 0x1D8 JUMPI DUP1 PUSH4 0xD0089573 EQ PUSH2 0x1EA JUMPI PUSH0 DUP1 REVERT JUMPDEST DUP1 PUSH4 0x6FDDE03 EQ PUSH2 0xC3 JUMPI DUP1 PUSH4 0x24A5B1DE EQ PUSH2 0xED JUMPI DUP1 PUSH4 0x2E1A7D4D EQ PUSH2 0x103 JUMPI DUP1 PUSH4 0x4D55ED9B EQ PUSH2 0x122 JUMPI DUP1 PUSH4 0x5C0133D9 EQ PUSH2 0x141 JUMPI DUP1 PUSH4 0x8DA5CB5B EQ PUSH2 0x16A JUMPI JUMPDEST PUSH0 DUP1 REVERT JUMPDEST CALLVALUE DUP1 ISZERO PUSH2 0xCE JUMPI PUSH0 DUP1 REVERT JUMPDEST POP PUSH2 0xD7 PUSH2 0x26B JUMP JUMPDEST PUSH1 0x40 MLOAD PUSH2 0xE4 SWAP2 SWAP1 PUSH2 0x98A JUMP JUMPDEST PUSH1 0x40 MLOAD DUP1 SWAP2 SUB SWAP1 RETURN JUMPDEST CALLVALUE DUP1 ISZERO PUSH2 0xF8 JUMPI PUSH0 DUP1 REVERT JUMPDEST POP PUSH2 0x101 PUSH2 0x2F7 JUMP JUMPDEST STOP JUMPDEST CALLVALUE DUP1 ISZERO PUSH2 0x10E JUMPI PUSH0 DUP1 REVERT JUMPDEST POP PUSH2 0x101 PUSH2 0x11D CALLDATASIZE PUSH1 0x4 PUSH2 0x9D6 JUMP JUMPDEST PUSH2 0x415 JUMP JUMPDEST CALLVALUE DUP1 ISZERO PUSH2 0x12D JUMPI PUSH0 DUP1 REVERT JUMPDEST POP PUSH2 0x101 PUSH2 0x13C CALLDATASIZE PUSH1 0x4 PUSH2 0x9D6 JUMP JUMPDEST PUSH2 0x5A7 JUMP JUMPDEST CALLVALUE DUP1 ISZERO PUSH2 0x14C JUMPI PUSH0 DUP1 REVERT JUMPDEST POP PUSH1 0x4 SLOAD PUSH2 0x15A SWAP1 PUSH1 0xFF AND DUP2 JUMP JUMPDEST PUSH1 0x40 MLOAD SWAP1 ISZERO ISZERO DUP2 MSTORE PUSH1 0x20 ADD PUSH2 0xE4 JUMP JUMPDEST CALLVALUE DUP1 ISZERO PUSH2 0x175 JUMPI PUSH0 DUP1 REVERT JUMPDEST POP PUSH2 0x19D PUSH32 0x0 DUP2 JUMP JUMPDEST PUSH1 0x40 MLOAD PUSH1 0x1 PUSH1 0x1 PUSH1 0xA0 SHL SUB SWAP1 SWAP2 AND DUP2 MSTORE PUSH1 0x20 ADD PUSH2 0xE4 JUMP JUMPDEST CALLVALUE DUP1 ISZERO PUSH2 0x1C0 JUMPI PUSH0 DUP1 REVERT JUMPDEST POP PUSH2 0x1CA PUSH1 0x2 SLOAD DUP2 JUMP JUMPDEST PUSH1 0x40 MLOAD SWAP1 DUP2 MSTORE PUSH1 0x20 ADD PUSH2 0xE4 JUMP JUMPDEST CALLVALUE DUP1 ISZERO PUSH2 0x1E3 JUMPI PUSH0 DUP1 REVERT JUMPDEST POP SELFBALANCE PUSH2 0x1CA JUMP JUMPDEST CALLVALUE DUP1 ISZERO PUSH2 0x1F5 JUMPI PUSH0 DUP1 REVERT JUMPDEST POP PUSH2 0x1CA PUSH1 0x5 SLOAD DUP2 JUMP JUMPDEST PUSH2 0x101 PUSH2 0x6A7 JUMP JUMPDEST CALLVALUE DUP1 ISZERO PUSH2 0x212 JUMPI PUSH0 DUP1 REVERT JUMPDEST POP PUSH2 0x101 PUSH2 0x221 CALLDATASIZE PUSH1 0x4 PUSH2 0x9ED JUMP JUMPDEST PUSH2 0x881 JUMP JUMPDEST CALLVALUE DUP1 ISZERO PUSH2 0x231 JUMPI PUSH0 DUP1 REVERT JUMPDEST POP PUSH1 0x4 SLOAD PUSH2 0x244 SWAP1 PUSH2 0x100 SWAP1 DIV PUSH1 0xFF AND DUP2 JUMP JUMPDEST PUSH1 0x40 MLOAD PUSH1 0xFF SWAP1 SWAP2 AND DUP2 MSTORE PUSH1 0x20 ADD PUSH2 0xE4 JUMP JUMPDEST CALLVALUE DUP1 ISZERO PUSH2 0x261 JUMPI PUSH0 DUP1 REVERT JUMPDEST POP PUSH2 0x1CA PUSH1 0x3 SLOAD DUP2 JUMP JUMPDEST PUSH1 0x1 DUP1 SLOAD PUSH2 0x278 SWAP1 PUSH2 0xA1C JUMP JUMPDEST DUP1 PUSH1 0x1F ADD PUSH1 0x20 DUP1 SWAP2 DIV MUL PUSH1 0x20 ADD PUSH1 0x40 MLOAD SWAP1 DUP2 ADD PUSH1 0x40 MSTORE DUP1 SWAP3 SWAP2 SWAP1 DUP2 DUP2 MSTORE PUSH1 0x20 ADD DUP3 DUP1 SLOAD PUSH2 0x2A4 SWAP1 PUSH2 0xA1C JUMP JUMPDEST DUP1 ISZERO PUSH2 0x2EF JUMPI DUP1 PUSH1 0x1F LT PUSH2 0x2C6 JUMPI PUSH2 0x100 DUP1 DUP4 SLOAD DIV MUL DUP4 MSTORE SWAP2 PUSH1 0x20 ADD SWAP2 PUSH2 0x2EF JUMP JUMPDEST DUP3 ADD SWAP2 SWAP1 PUSH0 MSTORE PUSH1 0x20 PUSH0 KECCAK256 SWAP1 JUMPDEST DUP2 SLOAD DUP2 MSTORE SWAP1 PUSH1 0x1 ADD SWAP1 PUSH1 0x20 ADD DUP1 DUP4 GT PUSH2 0x2D2 JUMPI DUP3 SWAP1 SUB PUSH1 0x1F AND DUP3 ADD SWAP2 JUMPDEST POP POP POP POP POP DUP2 JUMP JUMPDEST CALLER PUSH1 0x1 PUSH1 0x1 PUSH1 0xA0 SHL SUB PUSH32 0x0 AND EQ PUSH2 0x348 JUMPI PUSH1 0x40 MLOAD PUSH3 0x461BCD PUSH1 0xE5 SHL DUP2 MSTORE PUSH1 0x4 ADD PUSH2 0x33F SWAP1 PUSH2 0xA54 JUMP JUMPDEST PUSH1 0x40 MLOAD DUP1 SWAP2 SUB SWAP1 REVERT JUMPDEST PUSH2 0x350 PUSH2 0x962 JUMP JUMPDEST PUSH1 0x40 MLOAD SELFBALANCE SWAP1 PUSH1 0x1 PUSH1 0x1 PUSH1 0xA0 SHL SUB PUSH32 0x0 AND SWAP1 DUP3 ISZERO PUSH2 0x8FC MUL SWAP1 DUP4 SWAP1 PUSH0 DUP2 DUP2 DUP2 DUP6 DUP9 DUP9 CALL SWAP4 POP POP POP POP ISZERO DUP1 ISZERO PUSH2 0x3A5 JUMPI RETURNDATASIZE PUSH0 DUP1 RETURNDATACOPY RETURNDATASIZE PUSH0 REVERT JUMPDEST POP PUSH32 0x0 PUSH1 0x1 PUSH1 0x1 PUSH1 0xA0 SHL SUB AND PUSH32 0x565718526BE993468DCC62923216591A4A28163ED98A6B31D782529692F5B057 DUP3 PUSH1 0x40 MLOAD PUSH2 0x401 SWAP2 DUP2 MSTORE PUSH1 0x20 ADD SWAP1 JUMP JUMPDEST PUSH1 0x40 MLOAD DUP1 SWAP2 SUB SWAP1 LOG2 POP PUSH2 0x413 PUSH1 0x1 PUSH0 SSTORE JUMP JUMPDEST JUMP JUMPDEST CALLER PUSH1 0x1 PUSH1 0x1 PUSH1 0xA0 SHL SUB PUSH32 0x0 AND EQ PUSH2 0x45D JUMPI PUSH1 0x40 MLOAD PUSH3 0x461BCD PUSH1 0xE5 SHL DUP2 MSTORE PUSH1 0x4 ADD PUSH2 0x33F SWAP1 PUSH2 0xA54 JUMP JUMPDEST PUSH2 0x465 PUSH2 0x962 JUMP JUMPDEST PUSH0 DUP2 GT PUSH2 0x49D JUMPI PUSH1 0x40 MLOAD PUSH3 0x461BCD PUSH1 0xE5 SHL DUP2 MSTORE PUSH1 0x20 PUSH1 0x4 DUP3 ADD MSTORE PUSH1 0x6 PUSH1 0x24 DUP3 ADD MSTORE PUSH6 0x185B5BDD5B9D PUSH1 0xD2 SHL PUSH1 0x44 DUP3 ADD MSTORE PUSH1 0x64 ADD PUSH2 0x33F JUMP JUMPDEST DUP1 SELFBALANCE LT ISZERO PUSH2 0x4E4 JUMPI PUSH1 0x40 MLOAD PUSH3 0x461BCD PUSH1 0xE5 SHL DUP2 MSTORE PUSH1 0x20 PUSH1 0x4 DUP3 ADD MSTORE PUSH1 0x14 PUSH1 0x24 DUP3 ADD MSTORE PUSH20 0x696E73756666696369656E742062616C616E6365 PUSH1 0x60 SHL PUSH1 0x44 DUP3 ADD MSTORE PUSH1 0x64 ADD PUSH2 0x33F JUMP JUMPDEST PUSH1 0x40 MLOAD PUSH1 0x1 PUSH1 0x1 PUSH1 0xA0 SHL SUB PUSH32 0x0 AND SWAP1 DUP3 ISZERO PUSH2 0x8FC MUL SWAP1 DUP4 SWAP1 PUSH0 DUP2 DUP2 DUP2 DUP6 DUP9 DUP9 CALL SWAP4 POP POP POP POP ISZERO DUP1 ISZERO PUSH2 0x537 JUMPI RETURNDATASIZE PUSH0 DUP1 RETURNDATACOPY RETURNDATASIZE PUSH0 REVERT JUMPDEST POP PUSH32 0x0 PUSH1 0x1 PUSH1 0x1 PUSH1 0xA0 SHL SUB AND PUSH32 0x7084F5476618D8E60B11EF0D7D3F06914655ADB8793E28FF7F018D4C76D505D5 DUP3 PUSH1 0x40 MLOAD PUSH2 0x593 SWAP2 DUP2 MSTORE PUSH1 0x20 ADD SWAP1 JUMP JUMPDEST PUSH1 0x40 MLOAD DUP1 SWAP2 SUB SWAP1 LOG2 PUSH2 0x5A4 PUSH1 0x1 PUSH0 SSTORE JUMP JUMPDEST POP JUMP JUMPDEST CALLER PUSH1 0x1 PUSH1 0x1 PUSH1 0xA0 SHL SUB PUSH32 0x0 AND EQ PUSH2 0x5EF JUMPI PUSH1 0x40 MLOAD PUSH3 0x461BCD PUSH1 0xE5 SHL DUP2 MSTORE PUSH1 0x4 ADD PUSH2 0x33F SWAP1 PUSH2 0xA54 JUMP JUMPDEST PUSH1 0x2 SLOAD ISZERO PUSH2 0x634 JUMPI PUSH1 0x40 MLOAD PUSH3 0x461BCD PUSH1 0xE5 SHL DUP2 MSTORE PUSH1 0x20 PUSH1 0x4 DUP3 ADD MSTORE PUSH1 0x12 PUSH1 0x24 DUP3 ADD MSTORE PUSH18 0x1D185C99D95D08185B1C9958591E481CD95D PUSH1 0x72 SHL PUSH1 0x44 DUP3 ADD MSTORE PUSH1 0x64 ADD PUSH2 0x33F JUMP JUMPDEST PUSH0 DUP2 GT PUSH2 0x66C JUMPI PUSH1 0x40 MLOAD PUSH3 0x461BCD PUSH1 0xE5 SHL DUP2 MSTORE PUSH1 0x20 PUSH1 0x4 DUP3 ADD MSTORE PUSH1 0x6 PUSH1 0x24 DUP3 ADD MSTORE PUSH6 0x1D185C99D95D PUSH1 0xD2 SHL PUSH1 0x44 DUP3 ADD MSTORE PUSH1 0x64 ADD PUSH2 0x33F JUMP JUMPDEST PUSH1 0x2 DUP2 SWAP1 SSTORE PUSH1 0x40 MLOAD DUP2 DUP2 MSTORE PUSH32 0xEF50269F9CFA8C72E8CC1A4865BC5B7288DAC942B3D7A701EF3D66CFF5E9B5E2 SWAP1 PUSH1 0x20 ADD PUSH1 0x40 MLOAD DUP1 SWAP2 SUB SWAP1 LOG1 POP JUMP JUMPDEST CALLER PUSH1 0x1 PUSH1 0x1 PUSH1 0xA0 SHL SUB PUSH32 0x0 AND EQ PUSH2 0x6EF JUMPI PUSH1 0x40 MLOAD PUSH3 0x461BCD PUSH1 0xE5 SHL DUP2 MSTORE PUSH1 0x4 ADD PUSH2 0x33F SWAP1 PUSH2 0xA54 JUMP JUMPDEST PUSH2 0x6F7 PUSH2 0x962 JUMP JUMPDEST PUSH0 CALLVALUE GT PUSH2 0x72F JUMPI PUSH1 0x40 MLOAD PUSH3 0x461BCD PUSH1 0xE5 SHL DUP2 MSTORE PUSH1 0x20 PUSH1 0x4 DUP3 ADD MSTORE PUSH1 0x6 PUSH1 0x24 DUP3 ADD MSTORE PUSH6 0x185B5BDD5B9D PUSH1 0xD2 SHL PUSH1 0x44 DUP3 ADD MSTORE PUSH1 0x64 ADD PUSH2 0x33F JUMP JUMPDEST PUSH1 0x2 SLOAD ISZERO PUSH2 0x7C9 JUMPI PUSH1 0x4 SLOAD PUSH1 0xFF AND ISZERO PUSH2 0x773 JUMPI PUSH1 0x40 MLOAD PUSH3 0x461BCD PUSH1 0xE5 SHL DUP2 MSTORE PUSH1 0x20 PUSH1 0x4 DUP3 ADD MSTORE PUSH1 0x6 PUSH1 0x24 DUP3 ADD MSTORE PUSH6 0x199A5B1B1959 PUSH1 0xD2 SHL PUSH1 0x44 DUP3 ADD MSTORE PUSH1 0x64 ADD PUSH2 0x33F JUMP JUMPDEST PUSH0 PUSH1 0x3 SLOAD PUSH1 0x2 SLOAD PUSH2 0x784 SWAP2 SWAP1 PUSH2 0xA8B JUMP JUMPDEST SWAP1 POP DUP1 CALLVALUE GT ISZERO PUSH2 0x7C7 JUMPI PUSH1 0x40 MLOAD PUSH3 0x461BCD PUSH1 0xE5 SHL DUP2 MSTORE PUSH1 0x20 PUSH1 0x4 DUP3 ADD MSTORE PUSH1 0xE PUSH1 0x24 DUP3 ADD MSTORE PUSH14 0x195E18D959591CC81D185C99D95D PUSH1 0x92 SHL PUSH1 0x44 DUP3 ADD MSTORE PUSH1 0x64 ADD PUSH2 0x33F JUMP JUMPDEST POP JUMPDEST CALLVALUE PUSH1 0x3 PUSH0 DUP3 DUP3 SLOAD PUSH2 0x7DA SWAP2 SWAP1 PUSH2 0xAA4 JUMP JUMPDEST SWAP1 SWAP2 SSTORE POP POP PUSH1 0x40 MLOAD CALLVALUE DUP2 MSTORE CALLER SWAP1 PUSH32 0x2DA466A7B24304F47E87FA2E1E5A81B9831CE54FEC19055CE277CA2F39BA42C4 SWAP1 PUSH1 0x20 ADD PUSH1 0x40 MLOAD DUP1 SWAP2 SUB SWAP1 LOG2 PUSH0 PUSH1 0x2 SLOAD GT DUP1 ISZERO PUSH2 0x828 JUMPI POP PUSH1 0x2 SLOAD PUSH1 0x3 SLOAD EQ JUMPDEST ISZERO PUSH2 0x878 JUMPI PUSH1 0x4 DUP1 SLOAD PUSH1 0xFF NOT AND PUSH1 0x1 OR SWAP1 SSTORE PUSH1 0x3 SLOAD PUSH1 0x40 MLOAD PUSH32 0xD14DF08FABC3175C71C9C6B212BD0FD290D0E78A5F809C5F28DEB5BA6F029B91 SWAP2 PUSH2 0x86F SWAP2 SWAP1 DUP2 MSTORE PUSH1 0x20 ADD SWAP1 JUMP JUMPDEST PUSH1 0x40 MLOAD DUP1 SWAP2 SUB SWAP1 LOG1 JUMPDEST PUSH2 0x413 PUSH1 0x1 PUSH0 SSTORE JUMP JUMPDEST CALLER PUSH1 0x1 PUSH1 0x1 PUSH1 0xA0 SHL SUB PUSH32 0x0 AND EQ PUSH2 0x8C9 JUMPI PUSH1 0x40 MLOAD PUSH3 0x461BCD PUSH1 0xE5 SHL DUP2 MSTORE PUSH1 0x4 ADD PUSH2 0x33F SWAP1 PUSH2 0xA54 JUMP JUMPDEST PUSH1 0x2 DUP3 PUSH1 0xFF AND GT ISZERO PUSH2 0x906 JUMPI PUSH1 0x40 MLOAD PUSH3 0x461BCD PUSH1 0xE5 SHL DUP2 MSTORE PUSH1 0x20 PUSH1 0x4 DUP3 ADD MSTORE PUSH1 0x6 PUSH1 0x24 DUP3 ADD MSTORE PUSH6 0x1C195C9A5BD9 PUSH1 0xD2 SHL PUSH1 0x44 DUP3 ADD MSTORE PUSH1 0x64 ADD PUSH2 0x33F JUMP JUMPDEST PUSH1 0x4 DUP1 SLOAD PUSH2 0xFF00 NOT AND PUSH2 0x100 PUSH1 0xFF DUP6 AND SWAP1 DUP2 MUL SWAP2 SWAP1 SWAP2 OR SWAP1 SWAP2 SSTORE PUSH1 0x5 DUP3 SWAP1 SSTORE PUSH1 0x40 DUP1 MLOAD SWAP2 DUP3 MSTORE PUSH1 0x20 DUP3 ADD DUP4 SWAP1 MSTORE PUSH32 0x9C94756BF9CAFE00EE1C1D63C79A62EB01A94FC10963FFEB4C118F33CEE9DBC2 SWAP2 ADD PUSH1 0x40 MLOAD DUP1 SWAP2 SUB SWAP1 LOG1 POP POP JUMP JUMPDEST PUSH1 0x2 PUSH0 SLOAD SUB PUSH2 0x984 JUMPI PUSH1 0x40 MLOAD PUSH4 0x3EE5AEB5 PUSH1 0xE0 SHL DUP2 MSTORE PUSH1 0x4 ADD PUSH1 0x40 MLOAD DUP1 SWAP2 SUB SWAP1 REVERT JUMPDEST PUSH1 0x2 PUSH0 SSTORE JUMP JUMPDEST PUSH0 PUSH1 0x20 DUP1 DUP4 MSTORE DUP4 MLOAD DUP1 PUSH1 0x20 DUP6 ADD MSTORE PUSH0 JUMPDEST DUP2 DUP2 LT ISZERO PUSH2 0x9B6 JUMPI DUP6 DUP2 ADD DUP4 ADD MLOAD DUP6 DUP3 ADD PUSH1 0x40 ADD MSTORE DUP3 ADD PUSH2 0x99A JUMP JUMPDEST POP PUSH0 PUSH1 0x40 DUP3 DUP7 ADD ADD MSTORE PUSH1 0x40 PUSH1 0x1F NOT PUSH1 0x1F DUP4 ADD AND DUP6 ADD ADD SWAP3 POP POP POP SWAP3 SWAP2 POP POP JUMP JUMPDEST PUSH0 PUSH1 0x20 DUP3 DUP5 SUB SLT ISZERO PUSH2 0x9E6 JUMPI PUSH0 DUP1 REVERT JUMPDEST POP CALLDATALOAD SWAP2 SWAP1 POP JUMP JUMPDEST PUSH0 DUP1 PUSH1 0x40 DUP4 DUP6 SUB SLT ISZERO PUSH2 0x9FE JUMPI PUSH0 DUP1 REVERT JUMPDEST DUP3 CALLDATALOAD PUSH1 0xFF DUP2 AND DUP2 EQ PUSH2 0xA0E JUMPI PUSH0 DUP1 REVERT JUMPDEST SWAP5 PUSH1 0x20 SWAP4 SWAP1 SWAP4 ADD CALLDATALOAD SWAP4 POP POP POP JUMP JUMPDEST PUSH1 0x1 DUP2 DUP2 SHR SWAP1 DUP3 AND DUP1 PUSH2 0xA30 JUMPI PUSH1 0x7F DUP3 AND SWAP2 POP JUMPDEST PUSH1 0x20 DUP3 LT DUP2 SUB PUSH2 0xA4E JUMPI PUSH4 0x4E487B71 PUSH1 0xE0 SHL PUSH0 MSTORE PUSH1 0x22 PUSH1 0x4 MSTORE PUSH1 0x24 PUSH0 REVERT JUMPDEST POP SWAP2 SWAP1 POP JUMP JUMPDEST PUSH1 0x20 DUP1 DUP3 MSTORE PUSH1 0x9 SWAP1 DUP3 ADD MSTORE PUSH9 0x3737BA1037BBB732B9 PUSH1 0xB9 SHL PUSH1 0x40 DUP3 ADD MSTORE PUSH1 0x60 ADD SWAP1 JUMP JUMPDEST PUSH4 0x4E487B71 PUSH1 0xE0 SHL PUSH0 MSTORE PUSH1 0x11 PUSH1 0x4 MSTORE PUSH1 0x24 PUSH0 REVERT JUMPDEST DUP2 DUP2 SUB DUP2 DUP2 GT ISZERO PUSH2 0xA9E JUMPI PUSH2 0xA9E PUSH2 0xA77 JUMP JUMPDEST SWAP3 SWAP2 POP POP JUMP JUMPDEST DUP1 DUP3 ADD DUP1 DUP3 GT ISZERO PUSH2 0xA9E JUMPI PUSH2 0xA9E PUSH2 0xA77 JUMP INVALID LOG2 PUSH5 0x6970667358 0x22 SLT KECCAK256 0xDF KECCAK256 0x4C SIGNEXTEND PUSH15 0xC0164B02AC444F1857C7B430B9C41C AND JUMPDEST 0xE0 0xAE 0xFB CALLVALUE 0xBC 0xBB PUSH20 0xAE2FE864736F6C63430008180033000000000000 "},"methodIdentifiers":{"balance()":"b69ef8a8","breakJar()":"24a5b1de","deposit()":"d0e30db0","filled()":"5c0133d9","name()":"06fdde03","owner()":"8da5cb5b","period()":"ef78d4fd","recurringAmount()":"d0089573","setSchedule(uint8,uint256)":"eb28363d","setTargetAmount(uint256)":"4d55ed9b","targetAmount()":"953b8fb8","totalDeposited()":"ff50abdc","withdraw(uint256)":"2e1a7d4d"}}}}}