{
  "_format": "hh3-artifact-1",
  "contractName": "PiggyJarPYUSDUPI",
  "sourceName": "contracts/PiggyJarPYUSDUPI.sol",
  "abi": [
    {
      "inputs": [
        {
          "internalType": "address",
          "name": "_owner",
          "type": "address"
        },
        {
          "internalType": "string",
          "name": "_name",
          "type": "string"
        },
        {
          "internalType": "uint8",
          "name": "_period",
          "type": "uint8"
        },
        {
          "internalType": "uint256",
          "name": "_recurringAmount",
          "type": "uint256"
        },
        {
          "internalType": "uint256",
          "name": "_targetAmount",
          "type": "uint256"
        },
        {
          "internalType": "address",
          "name": "_pyusd",
          "type": "address"
        }
      ],
      "stateMutability": "nonpayable",
      "type": "constructor"
    },
    {
      "inputs": [],
      "name": "ReentrancyGuardReentrantCall",
      "type": "error"
    },
    {
      "inputs": [
        {
          "internalType": "address",
          "name": "token",
          "type": "address"
        }
      ],
      "name": "SafeERC20FailedOperation",
      "type": "error"
    },
    {
      "anonymous": false,
      "inputs": [
        {
          "indexed": true,
          "internalType": "address",
          "name": "to",
          "type": "address"
        },
        {
          "indexed": false,
          "internalType": "uint256",
          "name": "amount",
          "type": "uint256"
        }
      ],
      "name": "Broken",
      "type": "event"
    },
    {
      "anonymous": false,
      "inputs": [
        {
          "indexed": true,
          "internalType": "address",
          "name": "from",
          "type": "address"
        },
        {
          "indexed": false,
          "internalType": "uint256",
          "name": "amount",
          "type": "uint256"
        }
      ],
      "name": "Deposited",
      "type": "event"
    },
    {
      "anonymous": false,
      "inputs": [
        {
          "indexed": false,
          "internalType": "uint256",
          "name": "totalDeposited",
          "type": "uint256"
        }
      ],
      "name": "Filled",
      "type": "event"
    },
    {
      "anonymous": false,
      "inputs": [
        {
          "indexed": false,
          "internalType": "uint8",
          "name": "period",
          "type": "uint8"
        },
        {
          "indexed": false,
          "internalType": "uint256",
          "name": "recurringAmount",
          "type": "uint256"
        }
      ],
      "name": "ScheduleSet",
      "type": "event"
    },
    {
      "anonymous": false,
      "inputs": [
        {
          "indexed": false,
          "internalType": "uint256",
          "name": "targetAmount",
          "type": "uint256"
        }
      ],
      "name": "TargetSet",
      "type": "event"
    },
    {
      "anonymous": false,
      "inputs": [
        {
          "indexed": true,
          "internalType": "address",
          "name": "to",
          "type": "address"
        },
        {
          "indexed": false,
          "internalType": "uint256",
          "name": "amount",
          "type": "uint256"
        }
      ],
      "name": "Withdrawn",
      "type": "event"
    },
    {
      "inputs": [],
      "name": "balance",
      "outputs": [
        {
          "internalType": "uint256",
          "name": "",
          "type": "uint256"
        }
      ],
      "stateMutability": "view",
      "type": "function"
    },
    {
      "inputs": [],
      "name": "breakJar",
      "outputs": [],
      "stateMutability": "nonpayable",
      "type": "function"
    },
    {
      "inputs": [
        {
          "internalType": "uint256",
          "name": "amount",
          "type": "uint256"
        }
      ],
      "name": "deposit",
      "outputs": [],
      "stateMutability": "nonpayable",
      "type": "function"
    },
    {
      "inputs": [],
      "name": "filled",
      "outputs": [
        {
          "internalType": "bool",
          "name": "",
          "type": "bool"
        }
      ],
      "stateMutability": "view",
      "type": "function"
    },
    {
      "inputs": [],
      "name": "name",
      "outputs": [
        {
          "internalType": "string",
          "name": "",
          "type": "string"
        }
      ],
      "stateMutability": "view",
      "type": "function"
    },
    {
      "inputs": [],
      "name": "owner",
      "outputs": [
        {
          "internalType": "address",
          "name": "",
          "type": "address"
        }
      ],
      "stateMutability": "view",
      "type": "function"
    },
    {
      "inputs": [],
      "name": "period",
      "outputs": [
        {
          "internalType": "uint8",
          "name": "",
          "type": "uint8"
        }
      ],
      "stateMutability": "view",
      "type": "function"
    },
    {
      "inputs": [],
      "name": "pyusd",
      "outputs": [
        {
          "internalType": "contract IERC20",
          "name": "",
          "type": "address"
        }
      ],
      "stateMutability": "view",
      "type": "function"
    },
    {
      "inputs": [],
      "name": "recurringAmount",
      "outputs": [
        {
          "internalType": "uint256",
          "name": "",
          "type": "uint256"
        }
      ],
      "stateMutability": "view",
      "type": "function"
    },
    {
      "inputs": [
        {
          "internalType": "uint8",
          "name": "_period",
          "type": "uint8"
        },
        {
          "internalType": "uint256",
          "name": "_recurringAmount",
          "type": "uint256"
        }
      ],
      "name": "setSchedule",
      "outputs": [],
      "stateMutability": "nonpayable",
      "type": "function"
    },
    {
      "inputs": [
        {
          "internalType": "uint256",
          "name": "amount",
          "type": "uint256"
        }
      ],
      "name": "setTargetAmount",
      "outputs": [],
      "stateMutability": "nonpayable",
      "type": "function"
    },
    {
      "inputs": [],
      "name": "targetAmount",
      "outputs": [
        {
          "internalType": "uint256",
          "name": "",
          "type": "uint256"
        }
      ],
      "stateMutability": "view",
      "type": "function"
    },
    {
      "inputs": [],
      "name": "totalDeposited",
      "outputs": [
        {
          "internalType": "uint256",
          "name": "",
          "type": "uint256"
        }
      ],
      "stateMutability": "view",
      "type": "function"
    },
    {
      "inputs": [
        {
          "internalType": "uint256",
          "name": "amount",
          "type": "uint256"
        }
      ],
      "name": "withdraw",
      "outputs": [],
      "stateMutability": "nonpayable",
      "type": "function"
    }
  ],
  "bytecode": "0x60c060405234801562000010575f80fd5b5060405162001274380380620012748339810160408190526200003391620001c9565b60015f556001600160a01b0386166200007b5760405162461bcd60e51b815260206004820152600560248201526437bbb732b960d91b60448201526064015b60405180910390fd5b6001600160a01b038116620000bb5760405162461bcd60e51b81526020600482015260056024820152641c1e5d5cd960da1b604482015260640162000072565b6001600160a01b0386166080526001620000d686826200036a565b506001600160a01b03811660a0526004805461ff00191661010060ff871690810291909117909155600584905560408051918252602082018590527f9c94756bf9cafe00ee1c1d63c79a62eb01a94fc10963ffeb4c118f33cee9dbc2910160405180910390a181156200017c5760028290556040518281527fef50269f9cfa8c72e8cc1a4865bc5b7288dac942b3d7a701ef3d66cff5e9b5e29060200160405180910390a15b50505050505062000436565b80516001600160a01b03811681146200019f575f80fd5b919050565b634e487b7160e01b5f52604160045260245ffd5b805160ff811681146200019f575f80fd5b5f805f805f8060c08789031215620001df575f80fd5b620001ea8762000188565b602088810151919750906001600160401b038082111562000209575f80fd5b818a0191508a601f8301126200021d575f80fd5b815181811115620002325762000232620001a4565b604051601f8201601f19908116603f011681019083821181831017156200025d576200025d620001a4565b816040528281528d8684870101111562000275575f80fd5b5f93505b8284101562000298578484018601518185018701529285019262000279565b5f868483010152809a50505050505050620002b660408801620001b8565b93506060870151925060808701519150620002d460a0880162000188565b90509295509295509295565b600181811c90821680620002f557607f821691505b6020821081036200031457634e487b7160e01b5f52602260045260245ffd5b50919050565b601f8211156200036557805f5260205f20601f840160051c81016020851015620003415750805b601f840160051c820191505b8181101562000362575f81556001016200034d565b50505b505050565b81516001600160401b03811115620003865762000386620001a4565b6200039e81620003978454620002e0565b846200031a565b602080601f831160018114620003d4575f8415620003bc5750858301515b5f19600386901b1c1916600185901b1785556200042e565b5f85815260208120601f198616915b828110156200040457888601518255948401946001909101908401620003e3565b50858210156200042257878501515f19600388901b60f8161c191681555b505060018460011b0185555b505050505050565b60805160a051610db3620004c15f395f818161010c01528181610331015281816103b70152818161050c015281816105cf0152818161079c015261094101525f8181610198015281816102cc015281816103d90152818161040001528181610478015281816105f101528181610618015281816106900152818161081d0152610a2c0152610db35ff3fe608060405234801561000f575f80fd5b50600436106100e5575f3560e01c8063953b8fb811610088578063d008957311610063578063d0089573146101ec578063eb28363d146101f5578063ef78d4fd14610208578063ff50abdc1461022c575f80fd5b8063953b8fb8146101ba578063b69ef8a8146101d1578063b6b55f25146101d9575f80fd5b80632e1a7d4d116100c35780632e1a7d4d146101505780634d55ed9b146101635780635c0133d9146101765780638da5cb5b14610193575f80fd5b806306fdde03146100e957806322e669d31461010757806324a5b1de14610146575b5f80fd5b6100f1610235565b6040516100fe9190610c39565b60405180910390f35b61012e7f000000000000000000000000000000000000000000000000000000000000000081565b6040516001600160a01b0390911681526020016100fe565b61014e6102c1565b005b61014e61015e366004610c85565b61046d565b61014e610171366004610c85565b610685565b6004546101839060ff1681565b60405190151581526020016100fe565b61012e7f000000000000000000000000000000000000000000000000000000000000000081565b6101c360025481565b6040519081526020016100fe565b6101c3610785565b61014e6101e7366004610c85565b610812565b6101c360055481565b61014e610203366004610c9c565b610a21565b60045461021a90610100900460ff1681565b60405160ff90911681526020016100fe565b6101c360035481565b6001805461024290610ccb565b80601f016020809104026020016040519081016040528092919081815260200182805461026e90610ccb565b80156102b95780601f10610290576101008083540402835291602001916102b9565b820191905f5260205f20905b81548152906001019060200180831161029c57829003601f168201915b505050505081565b336001600160a01b037f000000000000000000000000000000000000000000000000000000000000000016146103125760405162461bcd60e51b815260040161030990610d03565b60405180910390fd5b61031a610b02565b6040516370a0823160e01b81523060048201525f907f00000000000000000000000000000000000000000000000000000000000000006001600160a01b0316906370a0823190602401602060405180830381865afa15801561037e573d5f803e3d5ffd5b505050506040513d601f19601f820116820180604052508101906103a29190610d26565b905080156103fe576103fe6001600160a01b037f0000000000000000000000000000000000000000000000000000000000000000167f000000000000000000000000000000000000000000000000000000000000000083610b2a565b7f00000000000000000000000000000000000000000000000000000000000000006001600160a01b03167f565718526be993468dcc62923216591a4a28163ed98a6b31d782529692f5b0578260405161045991815260200190565b60405180910390a25061046b60015f55565b565b336001600160a01b037f000000000000000000000000000000000000000000000000000000000000000016146104b55760405162461bcd60e51b815260040161030990610d03565b6104bd610b02565b5f81116104f55760405162461bcd60e51b8152602060048201526006602482015265185b5bdd5b9d60d21b6044820152606401610309565b6040516370a0823160e01b815230600482015281907f00000000000000000000000000000000000000000000000000000000000000006001600160a01b0316906370a0823190602401602060405180830381865afa158015610559573d5f803e3d5ffd5b505050506040513d601f19601f8201168201806040525081019061057d9190610d26565b10156105c25760405162461bcd60e51b8152602060048201526014602482015273696e73756666696369656e742062616c616e636560601b6044820152606401610309565b6106166001600160a01b037f0000000000000000000000000000000000000000000000000000000000000000167f000000000000000000000000000000000000000000000000000000000000000083610b2a565b7f00000000000000000000000000000000000000000000000000000000000000006001600160a01b03167f7084f5476618d8e60b11ef0d7d3f06914655adb8793e28ff7f018d4c76d505d58260405161067191815260200190565b60405180910390a261068260015f55565b50565b336001600160a01b037f000000000000000000000000000000000000000000000000000000000000000016146106cd5760405162461bcd60e51b815260040161030990610d03565b600254156107125760405162461bcd60e51b81526020600482015260126024820152711d185c99d95d08185b1c9958591e481cd95d60721b6044820152606401610309565b5f811161074a5760405162461bcd60e51b81526020600482015260066024820152651d185c99d95d60d21b6044820152606401610309565b60028190556040518181527fef50269f9cfa8c72e8cc1a4865bc5b7288dac942b3d7a701ef3d66cff5e9b5e29060200160405180910390a150565b6040516370a0823160e01b81523060048201525f907f00000000000000000000000000000000000000000000000000000000000000006001600160a01b0316906370a0823190602401602060405180830381865afa1580156107e9573d5f803e3d5ffd5b505050506040513d601f19601f8201168201806040525081019061080d9190610d26565b905090565b336001600160a01b037f0000000000000000000000000000000000000000000000000000000000000000161461085a5760405162461bcd60e51b815260040161030990610d03565b610862610b02565b5f811161089a5760405162461bcd60e51b8152602060048201526006602482015265185b5bdd5b9d60d21b6044820152606401610309565b600254156109345760045460ff16156108de5760405162461bcd60e51b8152602060048201526006602482015265199a5b1b195960d21b6044820152606401610309565b5f6003546002546108ef9190610d51565b9050808211156109325760405162461bcd60e51b815260206004820152600e60248201526d195e18d959591cc81d185c99d95d60921b6044820152606401610309565b505b6109696001600160a01b037f000000000000000000000000000000000000000000000000000000000000000016333084610b8e565b8060035f82825461097a9190610d6a565b909155505060405181815233907f2da466a7b24304f47e87fa2e1e5a81b9831ce54fec19055ce277ca2f39ba42c49060200160405180910390a25f6002541180156109c85750600254600354145b15610a18576004805460ff191660011790556003546040517fd14df08fabc3175c71c9c6b212bd0fd290d0e78a5f809c5f28deb5ba6f029b9191610a0f9190815260200190565b60405180910390a15b61068260015f55565b336001600160a01b037f00000000000000000000000000000000000000000000000000000000000000001614610a695760405162461bcd60e51b815260040161030990610d03565b60028260ff161115610aa65760405162461bcd60e51b81526020600482015260066024820152651c195c9a5bd960d21b6044820152606401610309565b6004805461ff00191661010060ff851690810291909117909155600582905560408051918252602082018390527f9c94756bf9cafe00ee1c1d63c79a62eb01a94fc10963ffeb4c118f33cee9dbc2910160405180910390a15050565b60025f5403610b2457604051633ee5aeb560e01b815260040160405180910390fd5b60025f55565b6040516001600160a01b03838116602483015260448201839052610b8991859182169063a9059cbb906064015b604051602081830303815290604052915060e01b6020820180516001600160e01b038381831617835250505050610bcd565b505050565b6040516001600160a01b038481166024830152838116604483015260648201839052610bc79186918216906323b872dd90608401610b57565b50505050565b5f8060205f8451602086015f885af180610bec576040513d5f823e3d81fd5b50505f513d91508115610c03578060011415610c10565b6001600160a01b0384163b155b15610bc757604051635274afe760e01b81526001600160a01b0385166004820152602401610309565b5f602080835283518060208501525f5b81811015610c6557858101830151858201604001528201610c49565b505f604082860101526040601f19601f8301168501019250505092915050565b5f60208284031215610c95575f80fd5b5035919050565b5f8060408385031215610cad575f80fd5b823560ff81168114610cbd575f80fd5b946020939093013593505050565b600181811c90821680610cdf57607f821691505b602082108103610cfd57634e487b7160e01b5f52602260045260245ffd5b50919050565b6020808252600990820152683737ba1037bbb732b960b91b604082015260600190565b5f60208284031215610d36575f80fd5b5051919050565b634e487b7160e01b5f52601160045260245ffd5b81810381811115610d6457610d64610d3d565b92915050565b80820180821115610d6457610d64610d3d56fea2646970667358221220cbdc1232843df57fd4ae49a158219be068fab3fb13b452627d4a6c21f1dd775c64736f6c63430008180033",
  "linkReferences": {},
  "deployedLinkReferences": {},
  "immutableReferences": {
    "1143": [
      {
        "length": 32,
        "start": 408
      },
      {
        "length": 32,
        "start": 716
      },
      {
        "length": 32,
        "start": 985
      },
      {
        "length": 32,
        "start": 1024
      },
      {
        "length": 32,
        "start": 1144
      },
      {
        "length": 32,
        "start": 1521
      },
      {
        "length": 32,
        "start": 1560
      },
      {
        "length": 32,
        "start": 1680
      },
      {
        "length": 32,
        "start": 2077
      },
      {
        "length": 32,
        "start": 2604
      }
    ],
    "1148": [
      {
        "length": 32,
        "start": 268
      },
      {
        "length": 32,
        "start": 817
      },
      {
        "length": 32,
        "start": 951
      },
      {
        "length": 32,
        "start": 1292
      },
      {
        "length": 32,
        "start": 1487
      },
      {
        "length": 32,
        "start": 1948
      },
      {
        "length": 32,
        "start": 2369
      }
    ]
  },
  "inputSourceName": "project/contracts/PiggyJarPYUSDUPI.sol",
  "buildInfoId": "solc-0_8_24-36f28d5a7b54238d8535b71bfe251259e092dcc9"
}