{
  "_format": "hh3-artifact-1",
  "contractName": "PiggyJarUSDC",
  "sourceName": "contracts/PiggyJarUSDC.sol",
  "abi": [
    {
      "inputs": [
        {
          "internalType": "address",
          "name": "_owner",
          "type": "address"
        },
        {
          "internalType": "address",
          "name": "_token",
          "type": "address"
        },
        {
          "internalType": "string",
          "name": "_name",
          "type": "string"
        }
      ],
      "stateMutability": "nonpayable",
      "type": "constructor"
    },
    {
      "anonymous": false,
      "inputs": [
        {
          "indexed": true,
          "internalType": "address",
          "name": "to",
          "type": "address"
        },
        {
          "indexed": false,
          "internalType": "uint256",
          "name": "amount",
          "type": "uint256"
        }
      ],
      "name": "Broken",
      "type": "event"
    },
    {
      "anonymous": false,
      "inputs": [
        {
          "indexed": true,
          "internalType": "address",
          "name": "from",
          "type": "address"
        },
        {
          "indexed": false,
          "internalType": "uint256",
          "name": "amount",
          "type": "uint256"
        }
      ],
      "name": "Deposited",
      "type": "event"
    },
    {
      "anonymous": false,
      "inputs": [
        {
          "indexed": true,
          "internalType": "address",
          "name": "to",
          "type": "address"
        },
        {
          "indexed": false,
          "internalType": "uint256",
          "name": "amount",
          "type": "uint256"
        }
      ],
      "name": "Withdrawn",
      "type": "event"
    },
    {
      "inputs": [],
      "name": "balance",
      "outputs": [
        {
          "internalType": "uint256",
          "name": "",
          "type": "uint256"
        }
      ],
      "stateMutability": "view",
      "type": "function"
    },
    {
      "inputs": [],
      "name": "breakJar",
      "outputs": [],
      "stateMutability": "nonpayable",
      "type": "function"
    },
    {
      "inputs": [
        {
          "internalType": "uint256",
          "name": "amount",
          "type": "uint256"
        }
      ],
      "name": "deposit",
      "outputs": [],
      "stateMutability": "nonpayable",
      "type": "function"
    },
    {
      "inputs": [],
      "name": "name",
      "outputs": [
        {
          "internalType": "string",
          "name": "",
          "type": "string"
        }
      ],
      "stateMutability": "view",
      "type": "function"
    },
    {
      "inputs": [],
      "name": "owner",
      "outputs": [
        {
          "internalType": "address",
          "name": "",
          "type": "address"
        }
      ],
      "stateMutability": "view",
      "type": "function"
    },
    {
      "inputs": [],
      "name": "token",
      "outputs": [
        {
          "internalType": "contract IERC20",
          "name": "",
          "type": "address"
        }
      ],
      "stateMutability": "view",
      "type": "function"
    },
    {
      "inputs": [
        {
          "internalType": "uint256",
          "name": "amount",
          "type": "uint256"
        }
      ],
      "name": "withdraw",
      "outputs": [],
      "stateMutability": "nonpayable",
      "type": "function"
    }
  ],
  "bytecode": "0x60c060405234801562000010575f80fd5b5060405162000cdd38038062000cdd833981016040819052620000339162000111565b6001600160a01b038316620000775760405162461bcd60e51b815260206004820152600560248201526437bbb732b960d91b60448201526064015b60405180910390fd5b6001600160a01b038216620000b75760405162461bcd60e51b81526020600482015260056024820152643a37b5b2b760d91b60448201526064016200006e565b6001600160a01b03808416608052821660a0525f620000d782826200028d565b5050505062000359565b80516001600160a01b0381168114620000f8575f80fd5b919050565b634e487b7160e01b5f52604160045260245ffd5b5f805f6060848603121562000124575f80fd5b6200012f84620000e1565b9250602062000140818601620000e1565b60408601519093506001600160401b03808211156200015d575f80fd5b818701915087601f83011262000171575f80fd5b815181811115620001865762000186620000fd565b604051601f8201601f19908116603f01168101908382118183101715620001b157620001b1620000fd565b816040528281528a86848701011115620001c9575f80fd5b5f93505b82841015620001ec5784840186015181850187015292850192620001cd565b5f8684830101528096505050505050509250925092565b600181811c908216806200021857607f821691505b6020821081036200023757634e487b7160e01b5f52602260045260245ffd5b50919050565b601f8211156200028857805f5260205f20601f840160051c81016020851015620002645750805b601f840160051c820191505b8181101562000285575f815560010162000270565b50505b505050565b81516001600160401b03811115620002a957620002a9620000fd565b620002c181620002ba845462000203565b846200023d565b602080601f831160018114620002f7575f8415620002df5750858301515b5f19600386901b1c1916600185901b17855562000351565b5f85815260208120601f198616915b82811015620003275788860151825594840194600190910190840162000306565b50858210156200034557878501515f19600388901b60f8161c191681555b505060018460011b0185555b505050505050565b60805160a05161090f620003ce5f395f81816101260152818161023b015281816102f7015281816104ca015281816105e201526106fc01525f818160be015281816101de015281816102c30152818161039d0152818161040d01528181610499015281816105720152610663015261090f5ff3fe608060405234801561000f575f80fd5b506004361061007a575f3560e01c80638da5cb5b116100585780638da5cb5b146100b9578063b69ef8a8146100f8578063b6b55f251461010e578063fc0c546a14610121575f80fd5b806306fdde031461007e57806324a5b1de1461009c5780632e1a7d4d146100a6575b5f80fd5b610086610148565b60405161009391906107de565b60405180910390f35b6100a46101d3565b005b6100a46100b436600461082a565b610402565b6100e07f000000000000000000000000000000000000000000000000000000000000000081565b6040516001600160a01b039091168152602001610093565b6101006105cb565b604051908152602001610093565b6100a461011c36600461082a565b610658565b6100e07f000000000000000000000000000000000000000000000000000000000000000081565b5f805461015490610841565b80601f016020809104026020016040519081016040528092919081815260200182805461018090610841565b80156101cb5780601f106101a2576101008083540402835291602001916101cb565b820191905f5260205f20905b8154815290600101906020018083116101ae57829003601f168201915b505050505081565b336001600160a01b037f000000000000000000000000000000000000000000000000000000000000000016146102245760405162461bcd60e51b815260040161021b90610879565b60405180910390fd5b6040516370a0823160e01b81523060048201525f907f00000000000000000000000000000000000000000000000000000000000000006001600160a01b0316906370a0823190602401602060405180830381865afa158015610288573d5f803e3d5ffd5b505050506040513d601f19601f820116820180604052508101906102ac919061089c565b60405163a9059cbb60e01b81526001600160a01b037f000000000000000000000000000000000000000000000000000000000000000081166004830152602482018390529192505f917f0000000000000000000000000000000000000000000000000000000000000000169063a9059cbb906044016020604051808303815f875af115801561033d573d5f803e3d5ffd5b505050506040513d601f19601f8201168201806040525081019061036191906108b3565b90508061039b5760405162461bcd60e51b81526020600482015260086024820152673a3930b739b332b960c11b604482015260640161021b565b7f00000000000000000000000000000000000000000000000000000000000000006001600160a01b03167f565718526be993468dcc62923216591a4a28163ed98a6b31d782529692f5b057836040516103f691815260200190565b60405180910390a25050565b336001600160a01b037f0000000000000000000000000000000000000000000000000000000000000000161461044a5760405162461bcd60e51b815260040161021b90610879565b5f81116104825760405162461bcd60e51b8152602060048201526006602482015265185b5bdd5b9d60d21b604482015260640161021b565b60405163a9059cbb60e01b81526001600160a01b037f000000000000000000000000000000000000000000000000000000000000000081166004830152602482018390525f917f00000000000000000000000000000000000000000000000000000000000000009091169063a9059cbb906044016020604051808303815f875af1158015610512573d5f803e3d5ffd5b505050506040513d601f19601f8201168201806040525081019061053691906108b3565b9050806105705760405162461bcd60e51b81526020600482015260086024820152673a3930b739b332b960c11b604482015260640161021b565b7f00000000000000000000000000000000000000000000000000000000000000006001600160a01b03167f7084f5476618d8e60b11ef0d7d3f06914655adb8793e28ff7f018d4c76d505d5836040516103f691815260200190565b6040516370a0823160e01b81523060048201525f907f00000000000000000000000000000000000000000000000000000000000000006001600160a01b0316906370a0823190602401602060405180830381865afa15801561062f573d5f803e3d5ffd5b505050506040513d601f19601f82011682018060405250810190610653919061089c565b905090565b336001600160a01b037f000000000000000000000000000000000000000000000000000000000000000016146106a05760405162461bcd60e51b815260040161021b90610879565b5f81116106d85760405162461bcd60e51b8152602060048201526006602482015265185b5bdd5b9d60d21b604482015260640161021b565b6040516323b872dd60e01b8152336004820152306024820152604481018290525f907f00000000000000000000000000000000000000000000000000000000000000006001600160a01b0316906323b872dd906064016020604051808303815f875af115801561074a573d5f803e3d5ffd5b505050506040513d601f19601f8201168201806040525081019061076e91906108b3565b9050806107ac5760405162461bcd60e51b815260206004820152600c60248201526b7472616e7366657246726f6d60a01b604482015260640161021b565b60405182815233907f2da466a7b24304f47e87fa2e1e5a81b9831ce54fec19055ce277ca2f39ba42c4906020016103f6565b5f602080835283518060208501525f5b8181101561080a578581018301518582016040015282016107ee565b505f604082860101526040601f19601f8301168501019250505092915050565b5f6020828403121561083a575f80fd5b5035919050565b600181811c9082168061085557607f821691505b60208210810361087357634e487b7160e01b5f52602260045260245ffd5b50919050565b6020808252600990820152683737ba1037bbb732b960b91b604082015260600190565b5f602082840312156108ac575f80fd5b5051919050565b5f602082840312156108c3575f80fd5b815180151581146108d2575f80fd5b939250505056fea264697066735822122055563f0c5a6de627dab472a05a392056fe5ceeae6ce60f6d017874f4fdc5e91564736f6c63430008180033",
  "linkReferences": {},
  "deployedLinkReferences": {},
  "immutableReferences": {
    "410": [
      {
        "length": 32,
        "start": 190
      },
      {
        "length": 32,
        "start": 478
      },
      {
        "length": 32,
        "start": 707
      },
      {
        "length": 32,
        "start": 925
      },
      {
        "length": 32,
        "start": 1037
      },
      {
        "length": 32,
        "start": 1177
      },
      {
        "length": 32,
        "start": 1394
      },
      {
        "length": 32,
        "start": 1635
      }
    ],
    "413": [
      {
        "length": 32,
        "start": 294
      },
      {
        "length": 32,
        "start": 571
      },
      {
        "length": 32,
        "start": 759
      },
      {
        "length": 32,
        "start": 1226
      },
      {
        "length": 32,
        "start": 1506
      },
      {
        "length": 32,
        "start": 1788
      }
    ]
  },
  "inputSourceName": "project/contracts/PiggyJarUSDC.sol",
  "buildInfoId": "solc-0_8_24-20361c4d21fe90a098f9f9093f1aa212d69d0b04"
}