{
  "_format": "hh3-artifact-1",
  "contractName": "PiggyJarUSDC",
  "sourceName": "contracts/PiggyJarUSDC.sol",
  "abi": [
    {
      "inputs": [
        {
          "internalType": "address",
          "name": "_owner",
          "type": "address"
        },
        {
          "internalType": "address",
          "name": "_token",
          "type": "address"
        },
        {
          "internalType": "string",
          "name": "_name",
          "type": "string"
        },
        {
          "internalType": "uint8",
          "name": "_period",
          "type": "uint8"
        },
        {
          "internalType": "uint256",
          "name": "_recurringAmount",
          "type": "uint256"
        },
        {
          "internalType": "uint256",
          "name": "_targetAmount",
          "type": "uint256"
        }
      ],
      "stateMutability": "nonpayable",
      "type": "constructor"
    },
    {
      "inputs": [],
      "name": "ReentrancyGuardReentrantCall",
      "type": "error"
    },
    {
      "inputs": [
        {
          "internalType": "address",
          "name": "token",
          "type": "address"
        }
      ],
      "name": "SafeERC20FailedOperation",
      "type": "error"
    },
    {
      "anonymous": false,
      "inputs": [
        {
          "indexed": true,
          "internalType": "address",
          "name": "to",
          "type": "address"
        },
        {
          "indexed": false,
          "internalType": "uint256",
          "name": "amount",
          "type": "uint256"
        }
      ],
      "name": "Broken",
      "type": "event"
    },
    {
      "anonymous": false,
      "inputs": [
        {
          "indexed": true,
          "internalType": "address",
          "name": "from",
          "type": "address"
        },
        {
          "indexed": false,
          "internalType": "uint256",
          "name": "amount",
          "type": "uint256"
        }
      ],
      "name": "Deposited",
      "type": "event"
    },
    {
      "anonymous": false,
      "inputs": [
        {
          "indexed": false,
          "internalType": "uint256",
          "name": "totalDeposited",
          "type": "uint256"
        }
      ],
      "name": "Filled",
      "type": "event"
    },
    {
      "anonymous": false,
      "inputs": [
        {
          "indexed": false,
          "internalType": "uint8",
          "name": "period",
          "type": "uint8"
        },
        {
          "indexed": false,
          "internalType": "uint256",
          "name": "recurringAmount",
          "type": "uint256"
        }
      ],
      "name": "ScheduleSet",
      "type": "event"
    },
    {
      "anonymous": false,
      "inputs": [
        {
          "indexed": false,
          "internalType": "uint256",
          "name": "targetAmount",
          "type": "uint256"
        }
      ],
      "name": "TargetSet",
      "type": "event"
    },
    {
      "anonymous": false,
      "inputs": [
        {
          "indexed": true,
          "internalType": "address",
          "name": "to",
          "type": "address"
        },
        {
          "indexed": false,
          "internalType": "uint256",
          "name": "amount",
          "type": "uint256"
        }
      ],
      "name": "Withdrawn",
      "type": "event"
    },
    {
      "inputs": [],
      "name": "balance",
      "outputs": [
        {
          "internalType": "uint256",
          "name": "",
          "type": "uint256"
        }
      ],
      "stateMutability": "view",
      "type": "function"
    },
    {
      "inputs": [],
      "name": "breakJar",
      "outputs": [],
      "stateMutability": "nonpayable",
      "type": "function"
    },
    {
      "inputs": [
        {
          "internalType": "uint256",
          "name": "amount",
          "type": "uint256"
        }
      ],
      "name": "deposit",
      "outputs": [],
      "stateMutability": "nonpayable",
      "type": "function"
    },
    {
      "inputs": [],
      "name": "filled",
      "outputs": [
        {
          "internalType": "bool",
          "name": "",
          "type": "bool"
        }
      ],
      "stateMutability": "view",
      "type": "function"
    },
    {
      "inputs": [],
      "name": "name",
      "outputs": [
        {
          "internalType": "string",
          "name": "",
          "type": "string"
        }
      ],
      "stateMutability": "view",
      "type": "function"
    },
    {
      "inputs": [],
      "name": "owner",
      "outputs": [
        {
          "internalType": "address",
          "name": "",
          "type": "address"
        }
      ],
      "stateMutability": "view",
      "type": "function"
    },
    {
      "inputs": [],
      "name": "period",
      "outputs": [
        {
          "internalType": "uint8",
          "name": "",
          "type": "uint8"
        }
      ],
      "stateMutability": "view",
      "type": "function"
    },
    {
      "inputs": [],
      "name": "recurringAmount",
      "outputs": [
        {
          "internalType": "uint256",
          "name": "",
          "type": "uint256"
        }
      ],
      "stateMutability": "view",
      "type": "function"
    },
    {
      "inputs": [
        {
          "internalType": "uint8",
          "name": "_period",
          "type": "uint8"
        },
        {
          "internalType": "uint256",
          "name": "_recurringAmount",
          "type": "uint256"
        }
      ],
      "name": "setSchedule",
      "outputs": [],
      "stateMutability": "nonpayable",
      "type": "function"
    },
    {
      "inputs": [
        {
          "internalType": "uint256",
          "name": "amount",
          "type": "uint256"
        }
      ],
      "name": "setTargetAmount",
      "outputs": [],
      "stateMutability": "nonpayable",
      "type": "function"
    },
    {
      "inputs": [],
      "name": "targetAmount",
      "outputs": [
        {
          "internalType": "uint256",
          "name": "",
          "type": "uint256"
        }
      ],
      "stateMutability": "view",
      "type": "function"
    },
    {
      "inputs": [],
      "name": "token",
      "outputs": [
        {
          "internalType": "contract IERC20",
          "name": "",
          "type": "address"
        }
      ],
      "stateMutability": "view",
      "type": "function"
    },
    {
      "inputs": [],
      "name": "totalDeposited",
      "outputs": [
        {
          "internalType": "uint256",
          "name": "",
          "type": "uint256"
        }
      ],
      "stateMutability": "view",
      "type": "function"
    },
    {
      "inputs": [
        {
          "internalType": "uint256",
          "name": "amount",
          "type": "uint256"
        }
      ],
      "name": "withdraw",
      "outputs": [],
      "stateMutability": "nonpayable",
      "type": "function"
    }
  ],
  "bytecode": "0x60c060405234801562000010575f80fd5b50604051620012aa380380620012aa833981016040819052620000339162000201565b60015f556001600160a01b0386166200007b5760405162461bcd60e51b815260206004820152600560248201526437bbb732b960d91b60448201526064015b60405180910390fd5b6001600160a01b038516620000bb5760405162461bcd60e51b81526020600482015260056024820152643a37b5b2b760d91b604482015260640162000072565b60028360ff161115620000fa5760405162461bcd60e51b81526020600482015260066024820152651c195c9a5bd960d21b604482015260640162000072565b6001600160a01b03808716608052851660a05260016200011b8582620003a1565b506004805461ff00191661010060ff861690810291909117909155600583905560408051918252602082018490527f9c94756bf9cafe00ee1c1d63c79a62eb01a94fc10963ffeb4c118f33cee9dbc2910160405180910390a18015620001b45760028190556040518181527fef50269f9cfa8c72e8cc1a4865bc5b7288dac942b3d7a701ef3d66cff5e9b5e29060200160405180910390a15b5050505050506200046d565b80516001600160a01b0381168114620001d7575f80fd5b919050565b634e487b7160e01b5f52604160045260245ffd5b805160ff81168114620001d7575f80fd5b5f805f805f8060c0878903121562000217575f80fd5b6200022287620001c0565b9550602062000233818901620001c0565b60408901519096506001600160401b038082111562000250575f80fd5b818a0191508a601f83011262000264575f80fd5b815181811115620002795762000279620001dc565b604051601f8201601f19908116603f01168101908382118183101715620002a457620002a4620001dc565b816040528281528d86848701011115620002bc575f80fd5b5f93505b82841015620002df5784840186015181850187015292850192620002c0565b5f868483010152809950505050505050620002fd60608801620001f0565b92506080870151915060a087015190509295509295509295565b600181811c908216806200032c57607f821691505b6020821081036200034b57634e487b7160e01b5f52602260045260245ffd5b50919050565b601f8211156200039c57805f5260205f20601f840160051c81016020851015620003785750805b601f840160051c820191505b8181101562000399575f815560010162000384565b50505b505050565b81516001600160401b03811115620003bd57620003bd620001dc565b620003d581620003ce845462000317565b8462000351565b602080601f8311600181146200040b575f8415620003f35750858301515b5f19600386901b1c1916600185901b17855562000465565b5f85815260208120601f198616915b828110156200043b578886015182559484019460019091019084016200041a565b50858210156200045957878501515f19600388901b60f8161c191681555b505060018460011b0185555b505050505050565b60805160a051610db2620004f85f395f818161020a01528181610331015281816103b101528181610506015281816105cd0152818161079b015261094001525f8181610159015281816102cc015281816103d3015281816103fa01528181610472015281816105ef015281816106160152818161068f0152818161081c0152610a2b0152610db25ff3fe608060405234801561000f575f80fd5b50600436106100e5575f3560e01c8063b69ef8a811610088578063eb28363d11610063578063eb28363d146101ce578063ef78d4fd146101e1578063fc0c546a14610205578063ff50abdc1461022c575f80fd5b8063b69ef8a8146101aa578063b6b55f25146101b2578063d0089573146101c5575f80fd5b80634d55ed9b116100c35780634d55ed9b146101245780635c0133d9146101375780638da5cb5b14610154578063953b8fb814610193575f80fd5b806306fdde03146100e957806324a5b1de146101075780632e1a7d4d14610111575b5f80fd5b6100f1610235565b6040516100fe9190610c38565b60405180910390f35b61010f6102c1565b005b61010f61011f366004610c84565b610467565b61010f610132366004610c84565b610684565b6004546101449060ff1681565b60405190151581526020016100fe565b61017b7f000000000000000000000000000000000000000000000000000000000000000081565b6040516001600160a01b0390911681526020016100fe565b61019c60025481565b6040519081526020016100fe565b61019c610784565b61010f6101c0366004610c84565b610811565b61019c60055481565b61010f6101dc366004610c9b565b610a20565b6004546101f390610100900460ff1681565b60405160ff90911681526020016100fe565b61017b7f000000000000000000000000000000000000000000000000000000000000000081565b61019c60035481565b6001805461024290610cca565b80601f016020809104026020016040519081016040528092919081815260200182805461026e90610cca565b80156102b95780601f10610290576101008083540402835291602001916102b9565b820191905f5260205f20905b81548152906001019060200180831161029c57829003601f168201915b505050505081565b336001600160a01b037f000000000000000000000000000000000000000000000000000000000000000016146103125760405162461bcd60e51b815260040161030990610d02565b60405180910390fd5b61031a610b01565b6040516370a0823160e01b81523060048201525f907f00000000000000000000000000000000000000000000000000000000000000006001600160a01b0316906370a0823190602401602060405180830381865afa15801561037e573d5f803e3d5ffd5b505050506040513d601f19601f820116820180604052508101906103a29190610d25565b90506103f86001600160a01b037f0000000000000000000000000000000000000000000000000000000000000000167f000000000000000000000000000000000000000000000000000000000000000083610b29565b7f00000000000000000000000000000000000000000000000000000000000000006001600160a01b03167f565718526be993468dcc62923216591a4a28163ed98a6b31d782529692f5b0578260405161045391815260200190565b60405180910390a25061046560015f55565b565b336001600160a01b037f000000000000000000000000000000000000000000000000000000000000000016146104af5760405162461bcd60e51b815260040161030990610d02565b6104b7610b01565b5f81116104ef5760405162461bcd60e51b8152602060048201526006602482015265185b5bdd5b9d60d21b6044820152606401610309565b6040516370a0823160e01b81523060048201525f907f00000000000000000000000000000000000000000000000000000000000000006001600160a01b0316906370a0823190602401602060405180830381865afa158015610553573d5f803e3d5ffd5b505050506040513d601f19601f820116820180604052508101906105779190610d25565b9050818110156105c05760405162461bcd60e51b8152602060048201526014602482015273696e73756666696369656e742062616c616e636560601b6044820152606401610309565b6106146001600160a01b037f0000000000000000000000000000000000000000000000000000000000000000167f000000000000000000000000000000000000000000000000000000000000000084610b29565b7f00000000000000000000000000000000000000000000000000000000000000006001600160a01b03167f7084f5476618d8e60b11ef0d7d3f06914655adb8793e28ff7f018d4c76d505d58360405161066f91815260200190565b60405180910390a25061068160015f55565b50565b336001600160a01b037f000000000000000000000000000000000000000000000000000000000000000016146106cc5760405162461bcd60e51b815260040161030990610d02565b600254156107115760405162461bcd60e51b81526020600482015260126024820152711d185c99d95d08185b1c9958591e481cd95d60721b6044820152606401610309565b5f81116107495760405162461bcd60e51b81526020600482015260066024820152651d185c99d95d60d21b6044820152606401610309565b60028190556040518181527fef50269f9cfa8c72e8cc1a4865bc5b7288dac942b3d7a701ef3d66cff5e9b5e29060200160405180910390a150565b6040516370a0823160e01b81523060048201525f907f00000000000000000000000000000000000000000000000000000000000000006001600160a01b0316906370a0823190602401602060405180830381865afa1580156107e8573d5f803e3d5ffd5b505050506040513d601f19601f8201168201806040525081019061080c9190610d25565b905090565b336001600160a01b037f000000000000000000000000000000000000000000000000000000000000000016146108595760405162461bcd60e51b815260040161030990610d02565b610861610b01565b5f81116108995760405162461bcd60e51b8152602060048201526006602482015265185b5bdd5b9d60d21b6044820152606401610309565b600254156109335760045460ff16156108dd5760405162461bcd60e51b8152602060048201526006602482015265199a5b1b195960d21b6044820152606401610309565b5f6003546002546108ee9190610d50565b9050808211156109315760405162461bcd60e51b815260206004820152600e60248201526d195e18d959591cc81d185c99d95d60921b6044820152606401610309565b505b6109686001600160a01b037f000000000000000000000000000000000000000000000000000000000000000016333084610b8d565b8060035f8282546109799190610d69565b909155505060405181815233907f2da466a7b24304f47e87fa2e1e5a81b9831ce54fec19055ce277ca2f39ba42c49060200160405180910390a25f6002541180156109c75750600254600354145b15610a17576004805460ff191660011790556003546040517fd14df08fabc3175c71c9c6b212bd0fd290d0e78a5f809c5f28deb5ba6f029b9191610a0e9190815260200190565b60405180910390a15b61068160015f55565b336001600160a01b037f00000000000000000000000000000000000000000000000000000000000000001614610a685760405162461bcd60e51b815260040161030990610d02565b60028260ff161115610aa55760405162461bcd60e51b81526020600482015260066024820152651c195c9a5bd960d21b6044820152606401610309565b6004805461ff00191661010060ff851690810291909117909155600582905560408051918252602082018390527f9c94756bf9cafe00ee1c1d63c79a62eb01a94fc10963ffeb4c118f33cee9dbc2910160405180910390a15050565b60025f5403610b2357604051633ee5aeb560e01b815260040160405180910390fd5b60025f55565b6040516001600160a01b03838116602483015260448201839052610b8891859182169063a9059cbb906064015b604051602081830303815290604052915060e01b6020820180516001600160e01b038381831617835250505050610bcc565b505050565b6040516001600160a01b038481166024830152838116604483015260648201839052610bc69186918216906323b872dd90608401610b56565b50505050565b5f8060205f8451602086015f885af180610beb576040513d5f823e3d81fd5b50505f513d91508115610c02578060011415610c0f565b6001600160a01b0384163b155b15610bc657604051635274afe760e01b81526001600160a01b0385166004820152602401610309565b5f602080835283518060208501525f5b81811015610c6457858101830151858201604001528201610c48565b505f604082860101526040601f19601f8301168501019250505092915050565b5f60208284031215610c94575f80fd5b5035919050565b5f8060408385031215610cac575f80fd5b823560ff81168114610cbc575f80fd5b946020939093013593505050565b600181811c90821680610cde57607f821691505b602082108103610cfc57634e487b7160e01b5f52602260045260245ffd5b50919050565b6020808252600990820152683737ba1037bbb732b960b91b604082015260600190565b5f60208284031215610d35575f80fd5b5051919050565b634e487b7160e01b5f52601160045260245ffd5b81810381811115610d6357610d63610d3c565b92915050565b80820180821115610d6357610d63610d3c56fea26469706673582212207c60835fda9cdda5198e040da048b02e17710676e2d6eb8155fa7a7b60a0830e64736f6c63430008180033",
  "linkReferences": {},
  "deployedLinkReferences": {},
  "immutableReferences": {
    "1692": [
      {
        "length": 32,
        "start": 345
      },
      {
        "length": 32,
        "start": 716
      },
      {
        "length": 32,
        "start": 979
      },
      {
        "length": 32,
        "start": 1018
      },
      {
        "length": 32,
        "start": 1138
      },
      {
        "length": 32,
        "start": 1519
      },
      {
        "length": 32,
        "start": 1558
      },
      {
        "length": 32,
        "start": 1679
      },
      {
        "length": 32,
        "start": 2076
      },
      {
        "length": 32,
        "start": 2603
      }
    ],
    "1695": [
      {
        "length": 32,
        "start": 522
      },
      {
        "length": 32,
        "start": 817
      },
      {
        "length": 32,
        "start": 945
      },
      {
        "length": 32,
        "start": 1286
      },
      {
        "length": 32,
        "start": 1485
      },
      {
        "length": 32,
        "start": 1947
      },
      {
        "length": 32,
        "start": 2368
      }
    ]
  },
  "inputSourceName": "project/contracts/PiggyJarUSDC.sol",
  "buildInfoId": "solc-0_8_24-f17dbe0dcd3ed5e2111fb4c9222e38769c71cac9"
}