{
  "_format": "hh3-artifact-1",
  "contractName": "PiggyJarTRBTC",
  "sourceName": "contracts/PiggyJarTRBTC.sol",
  "abi": [
    {
      "inputs": [
        {
          "internalType": "address",
          "name": "_owner",
          "type": "address"
        },
        {
          "internalType": "string",
          "name": "_name",
          "type": "string"
        },
        {
          "internalType": "uint8",
          "name": "_period",
          "type": "uint8"
        },
        {
          "internalType": "uint256",
          "name": "_recurringAmount",
          "type": "uint256"
        },
        {
          "internalType": "uint256",
          "name": "_targetAmount",
          "type": "uint256"
        }
      ],
      "stateMutability": "nonpayable",
      "type": "constructor"
    },
    {
      "inputs": [],
      "name": "ReentrancyGuardReentrantCall",
      "type": "error"
    },
    {
      "anonymous": false,
      "inputs": [
        {
          "indexed": true,
          "internalType": "address",
          "name": "to",
          "type": "address"
        },
        {
          "indexed": false,
          "internalType": "uint256",
          "name": "amount",
          "type": "uint256"
        }
      ],
      "name": "Broken",
      "type": "event"
    },
    {
      "anonymous": false,
      "inputs": [
        {
          "indexed": true,
          "internalType": "address",
          "name": "from",
          "type": "address"
        },
        {
          "indexed": false,
          "internalType": "uint256",
          "name": "amount",
          "type": "uint256"
        }
      ],
      "name": "Deposited",
      "type": "event"
    },
    {
      "anonymous": false,
      "inputs": [
        {
          "indexed": false,
          "internalType": "uint256",
          "name": "totalDeposited",
          "type": "uint256"
        }
      ],
      "name": "Filled",
      "type": "event"
    },
    {
      "anonymous": false,
      "inputs": [
        {
          "indexed": false,
          "internalType": "uint8",
          "name": "period",
          "type": "uint8"
        },
        {
          "indexed": false,
          "internalType": "uint256",
          "name": "recurringAmount",
          "type": "uint256"
        }
      ],
      "name": "ScheduleSet",
      "type": "event"
    },
    {
      "anonymous": false,
      "inputs": [
        {
          "indexed": false,
          "internalType": "uint256",
          "name": "targetAmount",
          "type": "uint256"
        }
      ],
      "name": "TargetSet",
      "type": "event"
    },
    {
      "anonymous": false,
      "inputs": [
        {
          "indexed": true,
          "internalType": "address",
          "name": "to",
          "type": "address"
        },
        {
          "indexed": false,
          "internalType": "uint256",
          "name": "amount",
          "type": "uint256"
        }
      ],
      "name": "Withdrawn",
      "type": "event"
    },
    {
      "inputs": [],
      "name": "balance",
      "outputs": [
        {
          "internalType": "uint256",
          "name": "",
          "type": "uint256"
        }
      ],
      "stateMutability": "view",
      "type": "function"
    },
    {
      "inputs": [],
      "name": "breakJar",
      "outputs": [],
      "stateMutability": "nonpayable",
      "type": "function"
    },
    {
      "inputs": [],
      "name": "deposit",
      "outputs": [],
      "stateMutability": "payable",
      "type": "function"
    },
    {
      "inputs": [],
      "name": "filled",
      "outputs": [
        {
          "internalType": "bool",
          "name": "",
          "type": "bool"
        }
      ],
      "stateMutability": "view",
      "type": "function"
    },
    {
      "inputs": [],
      "name": "name",
      "outputs": [
        {
          "internalType": "string",
          "name": "",
          "type": "string"
        }
      ],
      "stateMutability": "view",
      "type": "function"
    },
    {
      "inputs": [],
      "name": "owner",
      "outputs": [
        {
          "internalType": "address",
          "name": "",
          "type": "address"
        }
      ],
      "stateMutability": "view",
      "type": "function"
    },
    {
      "inputs": [],
      "name": "period",
      "outputs": [
        {
          "internalType": "uint8",
          "name": "",
          "type": "uint8"
        }
      ],
      "stateMutability": "view",
      "type": "function"
    },
    {
      "inputs": [],
      "name": "recurringAmount",
      "outputs": [
        {
          "internalType": "uint256",
          "name": "",
          "type": "uint256"
        }
      ],
      "stateMutability": "view",
      "type": "function"
    },
    {
      "inputs": [
        {
          "internalType": "uint8",
          "name": "_period",
          "type": "uint8"
        },
        {
          "internalType": "uint256",
          "name": "_recurringAmount",
          "type": "uint256"
        }
      ],
      "name": "setSchedule",
      "outputs": [],
      "stateMutability": "nonpayable",
      "type": "function"
    },
    {
      "inputs": [
        {
          "internalType": "uint256",
          "name": "amount",
          "type": "uint256"
        }
      ],
      "name": "setTargetAmount",
      "outputs": [],
      "stateMutability": "nonpayable",
      "type": "function"
    },
    {
      "inputs": [],
      "name": "targetAmount",
      "outputs": [
        {
          "internalType": "uint256",
          "name": "",
          "type": "uint256"
        }
      ],
      "stateMutability": "view",
      "type": "function"
    },
    {
      "inputs": [],
      "name": "totalDeposited",
      "outputs": [
        {
          "internalType": "uint256",
          "name": "",
          "type": "uint256"
        }
      ],
      "stateMutability": "view",
      "type": "function"
    },
    {
      "inputs": [
        {
          "internalType": "uint256",
          "name": "amount",
          "type": "uint256"
        }
      ],
      "name": "withdraw",
      "outputs": [],
      "stateMutability": "nonpayable",
      "type": "function"
    }
  ],
  "bytecode": "0x60a060405234801562000010575f80fd5b5060405162000f0f38038062000f0f833981016040819052620000339162000163565b60015f556001600160a01b0385166200007a5760405162461bcd60e51b815260206004820152600560248201526437bbb732b960d91b604482015260640160405180910390fd5b6001600160a01b0385166080526001620000958582620002fe565b506004805461ff00191661010060ff861690810291909117909155600583905560408051918252602082018490527f9c94756bf9cafe00ee1c1d63c79a62eb01a94fc10963ffeb4c118f33cee9dbc2910160405180910390a180156200012e5760028190556040518181527fef50269f9cfa8c72e8cc1a4865bc5b7288dac942b3d7a701ef3d66cff5e9b5e29060200160405180910390a15b5050505050620003ca565b634e487b7160e01b5f52604160045260245ffd5b805160ff811681146200015e575f80fd5b919050565b5f805f805f60a0868803121562000178575f80fd5b85516001600160a01b03811681146200018f575f80fd5b602087810151919650906001600160401b0380821115620001ae575f80fd5b818901915089601f830112620001c2575f80fd5b815181811115620001d757620001d762000139565b604051601f8201601f19908116603f0116810190838211818310171562000202576200020262000139565b816040528281528c868487010111156200021a575f80fd5b5f93505b828410156200023d57848401860151818501870152928501926200021e565b5f8684830101528099505050505050506200025b604087016200014d565b6060870151608090970151959894975095949392505050565b600181811c908216806200028957607f821691505b602082108103620002a857634e487b7160e01b5f52602260045260245ffd5b50919050565b601f821115620002f957805f5260205f20601f840160051c81016020851015620002d55750805b601f840160051c820191505b81811015620002f6575f8155600101620002e1565b50505b505050565b81516001600160401b038111156200031a576200031a62000139565b62000332816200032b845462000274565b84620002ae565b602080601f83116001811462000368575f8415620003505750858301515b5f19600386901b1c1916600185901b178555620003c2565b5f85815260208120601f198616915b82811015620003985788860151825594840194600190910190840162000377565b5085821015620003b657878501515f19600388901b60f8161c191681555b505060018460011b0185555b505050505050565b608051610aed620004225f395f818161017b015281816103020152818161035f015281816103a801528181610420015281816104f10152818161053a015281816105b2015281816106b2015261088c0152610aed5ff3fe6080604052600436106100bf575f3560e01c8063953b8fb81161007c578063d0e30db011610057578063d0e30db0146101ff578063eb28363d14610207578063ef78d4fd14610226578063ff50abdc14610256575f80fd5b8063953b8fb8146101b5578063b69ef8a8146101d8578063d0089573146101ea575f80fd5b806306fdde03146100c357806324a5b1de146100ed5780632e1a7d4d146101035780634d55ed9b146101225780635c0133d9146101415780638da5cb5b1461016a575b5f80fd5b3480156100ce575f80fd5b506100d761026b565b6040516100e4919061098a565b60405180910390f35b3480156100f8575f80fd5b506101016102f7565b005b34801561010e575f80fd5b5061010161011d3660046109d6565b610415565b34801561012d575f80fd5b5061010161013c3660046109d6565b6105a7565b34801561014c575f80fd5b5060045461015a9060ff1681565b60405190151581526020016100e4565b348015610175575f80fd5b5061019d7f000000000000000000000000000000000000000000000000000000000000000081565b6040516001600160a01b0390911681526020016100e4565b3480156101c0575f80fd5b506101ca60025481565b6040519081526020016100e4565b3480156101e3575f80fd5b50476101ca565b3480156101f5575f80fd5b506101ca60055481565b6101016106a7565b348015610212575f80fd5b506101016102213660046109ed565b610881565b348015610231575f80fd5b5060045461024490610100900460ff1681565b60405160ff90911681526020016100e4565b348015610261575f80fd5b506101ca60035481565b6001805461027890610a1c565b80601f01602080910402602001604051908101604052809291908181526020018280546102a490610a1c565b80156102ef5780601f106102c6576101008083540402835291602001916102ef565b820191905f5260205f20905b8154815290600101906020018083116102d257829003601f168201915b505050505081565b336001600160a01b037f000000000000000000000000000000000000000000000000000000000000000016146103485760405162461bcd60e51b815260040161033f90610a54565b60405180910390fd5b610350610962565b60405147906001600160a01b037f0000000000000000000000000000000000000000000000000000000000000000169082156108fc029083905f818181858888f193505050501580156103a5573d5f803e3d5ffd5b507f00000000000000000000000000000000000000000000000000000000000000006001600160a01b03167f565718526be993468dcc62923216591a4a28163ed98a6b31d782529692f5b0578260405161040191815260200190565b60405180910390a25061041360015f55565b565b336001600160a01b037f0000000000000000000000000000000000000000000000000000000000000000161461045d5760405162461bcd60e51b815260040161033f90610a54565b610465610962565b5f811161049d5760405162461bcd60e51b8152602060048201526006602482015265185b5bdd5b9d60d21b604482015260640161033f565b804710156104e45760405162461bcd60e51b8152602060048201526014602482015273696e73756666696369656e742062616c616e636560601b604482015260640161033f565b6040516001600160a01b037f0000000000000000000000000000000000000000000000000000000000000000169082156108fc029083905f818181858888f19350505050158015610537573d5f803e3d5ffd5b507f00000000000000000000000000000000000000000000000000000000000000006001600160a01b03167f7084f5476618d8e60b11ef0d7d3f06914655adb8793e28ff7f018d4c76d505d58260405161059391815260200190565b60405180910390a26105a460015f55565b50565b336001600160a01b037f000000000000000000000000000000000000000000000000000000000000000016146105ef5760405162461bcd60e51b815260040161033f90610a54565b600254156106345760405162461bcd60e51b81526020600482015260126024820152711d185c99d95d08185b1c9958591e481cd95d60721b604482015260640161033f565b5f811161066c5760405162461bcd60e51b81526020600482015260066024820152651d185c99d95d60d21b604482015260640161033f565b60028190556040518181527fef50269f9cfa8c72e8cc1a4865bc5b7288dac942b3d7a701ef3d66cff5e9b5e29060200160405180910390a150565b336001600160a01b037f000000000000000000000000000000000000000000000000000000000000000016146106ef5760405162461bcd60e51b815260040161033f90610a54565b6106f7610962565b5f341161072f5760405162461bcd60e51b8152602060048201526006602482015265185b5bdd5b9d60d21b604482015260640161033f565b600254156107c95760045460ff16156107735760405162461bcd60e51b8152602060048201526006602482015265199a5b1b195960d21b604482015260640161033f565b5f6003546002546107849190610a8b565b9050803411156107c75760405162461bcd60e51b815260206004820152600e60248201526d195e18d959591cc81d185c99d95d60921b604482015260640161033f565b505b3460035f8282546107da9190610aa4565b909155505060405134815233907f2da466a7b24304f47e87fa2e1e5a81b9831ce54fec19055ce277ca2f39ba42c49060200160405180910390a25f6002541180156108285750600254600354145b15610878576004805460ff191660011790556003546040517fd14df08fabc3175c71c9c6b212bd0fd290d0e78a5f809c5f28deb5ba6f029b919161086f9190815260200190565b60405180910390a15b61041360015f55565b336001600160a01b037f000000000000000000000000000000000000000000000000000000000000000016146108c95760405162461bcd60e51b815260040161033f90610a54565b60028260ff1611156109065760405162461bcd60e51b81526020600482015260066024820152651c195c9a5bd960d21b604482015260640161033f565b6004805461ff00191661010060ff851690810291909117909155600582905560408051918252602082018390527f9c94756bf9cafe00ee1c1d63c79a62eb01a94fc10963ffeb4c118f33cee9dbc2910160405180910390a15050565b60025f540361098457604051633ee5aeb560e01b815260040160405180910390fd5b60025f55565b5f602080835283518060208501525f5b818110156109b65785810183015185820160400152820161099a565b505f604082860101526040601f19601f8301168501019250505092915050565b5f602082840312156109e6575f80fd5b5035919050565b5f80604083850312156109fe575f80fd5b823560ff81168114610a0e575f80fd5b946020939093013593505050565b600181811c90821680610a3057607f821691505b602082108103610a4e57634e487b7160e01b5f52602260045260245ffd5b50919050565b6020808252600990820152683737ba1037bbb732b960b91b604082015260600190565b634e487b7160e01b5f52601160045260245ffd5b81810381811115610a9e57610a9e610a77565b92915050565b80820180821115610a9e57610a9e610a7756fea2646970667358221220df204c0b6ec0164b02ac444f1857c7b430b9c41c165be0aefb34bcbb73ae2fe864736f6c63430008180033",
  "linkReferences": {},
  "deployedLinkReferences": {},
  "immutableReferences": {
    "1349": [
      {
        "length": 32,
        "start": 379
      },
      {
        "length": 32,
        "start": 770
      },
      {
        "length": 32,
        "start": 863
      },
      {
        "length": 32,
        "start": 936
      },
      {
        "length": 32,
        "start": 1056
      },
      {
        "length": 32,
        "start": 1265
      },
      {
        "length": 32,
        "start": 1338
      },
      {
        "length": 32,
        "start": 1458
      },
      {
        "length": 32,
        "start": 1714
      },
      {
        "length": 32,
        "start": 2188
      }
    ]
  },
  "inputSourceName": "project/contracts/PiggyJarTRBTC.sol",
  "buildInfoId": "solc-0_8_24-f17dbe0dcd3ed5e2111fb4c9222e38769c71cac9"
}